{
  "contractName": "GuitarVault",
  "abi": [
    {
      "inputs": [
        {
          "internalType": "contract IERC20",
          "name": "_token",
          "type": "address"
        },
        {
          "internalType": "contract IERC20",
          "name": "_receiptToken",
          "type": "address"
        },
        {
          "internalType": "contract IMasterChef",
          "name": "_masterchef",
          "type": "address"
        },
        {
          "internalType": "address",
          "name": "_admin",
          "type": "address"
        },
        {
          "internalType": "address",
          "name": "_treasury",
          "type": "address"
        }
      ],
      "stateMutability": "nonpayable",
      "type": "constructor"
    },
    {
      "anonymous": false,
      "inputs": [
        {
          "indexed": true,
          "internalType": "address",
          "name": "sender",
          "type": "address"
        },
        {
          "indexed": false,
          "internalType": "uint256",
          "name": "amount",
          "type": "uint256"
        },
        {
          "indexed": false,
          "internalType": "uint256",
          "name": "shares",
          "type": "uint256"
        },
        {
          "indexed": false,
          "internalType": "uint256",
          "name": "lastDepositedTime",
          "type": "uint256"
        }
      ],
      "name": "Deposit",
      "type": "event"
    },
    {
      "anonymous": false,
      "inputs": [
        {
          "indexed": true,
          "internalType": "address",
          "name": "sender",
          "type": "address"
        },
        {
          "indexed": false,
          "internalType": "uint256",
          "name": "performanceFee",
          "type": "uint256"
        },
        {
          "indexed": false,
          "internalType": "uint256",
          "name": "callFee",
          "type": "uint256"
        }
      ],
      "name": "Harvest",
      "type": "event"
    },
    {
      "anonymous": false,
      "inputs": [
        {
          "indexed": true,
          "internalType": "address",
          "name": "previousOwner",
          "type": "address"
        },
        {
          "indexed": true,
          "internalType": "address",
          "name": "newOwner",
          "type": "address"
        }
      ],
      "name": "OwnershipTransferred",
      "type": "event"
    },
    {
      "anonymous": false,
      "inputs": [],
      "name": "Pause",
      "type": "event"
    },
    {
      "anonymous": false,
      "inputs": [
        {
          "indexed": false,
          "internalType": "address",
          "name": "account",
          "type": "address"
        }
      ],
      "name": "Paused",
      "type": "event"
    },
    {
      "anonymous": false,
      "inputs": [],
      "name": "Unpause",
      "type": "event"
    },
    {
      "anonymous": false,
      "inputs": [
        {
          "indexed": false,
          "internalType": "address",
          "name": "account",
          "type": "address"
        }
      ],
      "name": "Unpaused",
      "type": "event"
    },
    {
      "anonymous": false,
      "inputs": [
        {
          "indexed": true,
          "internalType": "address",
          "name": "sender",
          "type": "address"
        },
        {
          "indexed": false,
          "internalType": "uint256",
          "name": "amount",
          "type": "uint256"
        },
        {
          "indexed": false,
          "internalType": "uint256",
          "name": "shares",
          "type": "uint256"
        }
      ],
      "name": "Withdraw",
      "type": "event"
    },
    {
      "inputs": [],
      "name": "MAX_CALL_FEE",
      "outputs": [
        {
          "internalType": "uint256",
          "name": "",
          "type": "uint256"
        }
      ],
      "stateMutability": "view",
      "type": "function"
    },
    {
      "inputs": [],
      "name": "MAX_PERFORMANCE_FEE",
      "outputs": [
        {
          "internalType": "uint256",
          "name": "",
          "type": "uint256"
        }
      ],
      "stateMutability": "view",
      "type": "function"
    },
    {
      "inputs": [],
      "name": "MAX_WITHDRAW_FEE",
      "outputs": [
        {
          "internalType": "uint256",
          "name": "",
          "type": "uint256"
        }
      ],
      "stateMutability": "view",
      "type": "function"
    },
    {
      "inputs": [],
      "name": "MAX_WITHDRAW_FEE_PERIOD",
      "outputs": [
        {
          "internalType": "uint256",
          "name": "",
          "type": "uint256"
        }
      ],
      "stateMutability": "view",
      "type": "function"
    },
    {
      "inputs": [],
      "name": "admin",
      "outputs": [
        {
          "internalType": "address",
          "name": "",
          "type": "address"
        }
      ],
      "stateMutability": "view",
      "type": "function"
    },
    {
      "inputs": [],
      "name": "callFee",
      "outputs": [
        {
          "internalType": "uint256",
          "name": "",
          "type": "uint256"
        }
      ],
      "stateMutability": "view",
      "type": "function"
    },
    {
      "inputs": [],
      "name": "lastHarvestedTime",
      "outputs": [
        {
          "internalType": "uint256",
          "name": "",
          "type": "uint256"
        }
      ],
      "stateMutability": "view",
      "type": "function"
    },
    {
      "inputs": [],
      "name": "masterchef",
      "outputs": [
        {
          "internalType": "contract IMasterChef",
          "name": "",
          "type": "address"
        }
      ],
      "stateMutability": "view",
      "type": "function"
    },
    {
      "inputs": [],
      "name": "owner",
      "outputs": [
        {
          "internalType": "address",
          "name": "",
          "type": "address"
        }
      ],
      "stateMutability": "view",
      "type": "function"
    },
    {
      "inputs": [],
      "name": "paused",
      "outputs": [
        {
          "internalType": "bool",
          "name": "",
          "type": "bool"
        }
      ],
      "stateMutability": "view",
      "type": "function"
    },
    {
      "inputs": [],
      "name": "performanceFee",
      "outputs": [
        {
          "internalType": "uint256",
          "name": "",
          "type": "uint256"
        }
      ],
      "stateMutability": "view",
      "type": "function"
    },
    {
      "inputs": [],
      "name": "receiptToken",
      "outputs": [
        {
          "internalType": "contract IERC20",
          "name": "",
          "type": "address"
        }
      ],
      "stateMutability": "view",
      "type": "function"
    },
    {
      "inputs": [],
      "name": "renounceOwnership",
      "outputs": [],
      "stateMutability": "nonpayable",
      "type": "function"
    },
    {
      "inputs": [],
      "name": "token",
      "outputs": [
        {
          "internalType": "contract IERC20",
          "name": "",
          "type": "address"
        }
      ],
      "stateMutability": "view",
      "type": "function"
    },
    {
      "inputs": [],
      "name": "totalShares",
      "outputs": [
        {
          "internalType": "uint256",
          "name": "",
          "type": "uint256"
        }
      ],
      "stateMutability": "view",
      "type": "function"
    },
    {
      "inputs": [
        {
          "internalType": "address",
          "name": "newOwner",
          "type": "address"
        }
      ],
      "name": "transferOwnership",
      "outputs": [],
      "stateMutability": "nonpayable",
      "type": "function"
    },
    {
      "inputs": [],
      "name": "treasury",
      "outputs": [
        {
          "internalType": "address",
          "name": "",
          "type": "address"
        }
      ],
      "stateMutability": "view",
      "type": "function"
    },
    {
      "inputs": [
        {
          "internalType": "address",
          "name": "",
          "type": "address"
        }
      ],
      "name": "userInfo",
      "outputs": [
        {
          "internalType": "uint256",
          "name": "shares",
          "type": "uint256"
        },
        {
          "internalType": "uint256",
          "name": "lastDepositedTime",
          "type": "uint256"
        },
        {
          "internalType": "uint256",
          "name": "cakeAtLastUserAction",
          "type": "uint256"
        },
        {
          "internalType": "uint256",
          "name": "lastUserActionTime",
          "type": "uint256"
        }
      ],
      "stateMutability": "view",
      "type": "function"
    },
    {
      "inputs": [],
      "name": "withdrawFee",
      "outputs": [
        {
          "internalType": "uint256",
          "name": "",
          "type": "uint256"
        }
      ],
      "stateMutability": "view",
      "type": "function"
    },
    {
      "inputs": [],
      "name": "withdrawFeePeriod",
      "outputs": [
        {
          "internalType": "uint256",
          "name": "",
          "type": "uint256"
        }
      ],
      "stateMutability": "view",
      "type": "function"
    },
    {
      "inputs": [
        {
          "internalType": "uint256",
          "name": "_amount",
          "type": "uint256"
        }
      ],
      "name": "deposit",
      "outputs": [],
      "stateMutability": "nonpayable",
      "type": "function"
    },
    {
      "inputs": [],
      "name": "withdrawAll",
      "outputs": [],
      "stateMutability": "nonpayable",
      "type": "function"
    },
    {
      "inputs": [],
      "name": "harvest",
      "outputs": [],
      "stateMutability": "nonpayable",
      "type": "function"
    },
    {
      "inputs": [
        {
          "internalType": "address",
          "name": "_admin",
          "type": "address"
        }
      ],
      "name": "setAdmin",
      "outputs": [],
      "stateMutability": "nonpayable",
      "type": "function"
    },
    {
      "inputs": [
        {
          "internalType": "address",
          "name": "_treasury",
          "type": "address"
        }
      ],
      "name": "setTreasury",
      "outputs": [],
      "stateMutability": "nonpayable",
      "type": "function"
    },
    {
      "inputs": [
        {
          "internalType": "uint256",
          "name": "_performanceFee",
          "type": "uint256"
        }
      ],
      "name": "setPerformanceFee",
      "outputs": [],
      "stateMutability": "nonpayable",
      "type": "function"
    },
    {
      "inputs": [
        {
          "internalType": "uint256",
          "name": "_callFee",
          "type": "uint256"
        }
      ],
      "name": "setCallFee",
      "outputs": [],
      "stateMutability": "nonpayable",
      "type": "function"
    },
    {
      "inputs": [
        {
          "internalType": "uint256",
          "name": "_withdrawFee",
          "type": "uint256"
        }
      ],
      "name": "setWithdrawFee",
      "outputs": [],
      "stateMutability": "nonpayable",
      "type": "function"
    },
    {
      "inputs": [
        {
          "internalType": "uint256",
          "name": "_withdrawFeePeriod",
          "type": "uint256"
        }
      ],
      "name": "setWithdrawFeePeriod",
      "outputs": [],
      "stateMutability": "nonpayable",
      "type": "function"
    },
    {
      "inputs": [],
      "name": "emergencyWithdraw",
      "outputs": [],
      "stateMutability": "nonpayable",
      "type": "function"
    },
    {
      "inputs": [
        {
          "internalType": "address",
          "name": "_token",
          "type": "address"
        }
      ],
      "name": "inCaseTokensGetStuck",
      "outputs": [],
      "stateMutability": "nonpayable",
      "type": "function"
    },
    {
      "inputs": [],
      "name": "pause",
      "outputs": [],
      "stateMutability": "nonpayable",
      "type": "function"
    },
    {
      "inputs": [],
      "name": "unpause",
      "outputs": [],
      "stateMutability": "nonpayable",
      "type": "function"
    },
    {
      "inputs": [],
      "name": "calculateHarvestCakeRewards",
      "outputs": [
        {
          "internalType": "uint256",
          "name": "",
          "type": "uint256"
        }
      ],
      "stateMutability": "view",
      "type": "function"
    },
    {
      "inputs": [],
      "name": "calculateTotalPendingCakeRewards",
      "outputs": [
        {
          "internalType": "uint256",
          "name": "",
          "type": "uint256"
        }
      ],
      "stateMutability": "view",
      "type": "function"
    },
    {
      "inputs": [],
      "name": "getPricePerFullShare",
      "outputs": [
        {
          "internalType": "uint256",
          "name": "",
          "type": "uint256"
        }
      ],
      "stateMutability": "view",
      "type": "function"
    },
    {
      "inputs": [
        {
          "internalType": "uint256",
          "name": "_shares",
          "type": "uint256"
        }
      ],
      "name": "withdraw",
      "outputs": [],
      "stateMutability": "nonpayable",
      "type": "function"
    },
    {
      "inputs": [],
      "name": "available",
      "outputs": [
        {
          "internalType": "uint256",
          "name": "",
          "type": "uint256"
        }
      ],
      "stateMutability": "view",
      "type": "function"
    },
    {
      "inputs": [],
      "name": "balanceOf",
      "outputs": [
        {
          "internalType": "uint256",
          "name": "",
          "type": "uint256"
        }
      ],
      "stateMutability": "view",
      "type": "function"
    }
  ],
  "bytecode": "0x60e060405260c86006556019600755600a6008556203f4806009553480156200002757600080fd5b5060405162002f5638038062002f56833981810160405260a08110156200004d57600080fd5b508051602082015160408301516060840151608090940151929391929091906000620000786200014a565b600080546001600160a01b0319166001600160a01b0383169081178255604051929350917f8be0079c531659141344cd1fd0a4f28419497f9722a3daafe3b4186f6b6457e0908290a3506000805460ff60a01b191690556001600160601b0319606086811b821660805285811b821660a05284901b1660c052600480546001600160a01b038481166001600160a01b0319928316179092556005805484841692169190911790556200013f9086168460001962001e0a6200014e602090811b91909117901c565b505050505062000561565b3390565b801580620001d8575060408051636eb1769f60e11b81523060048201526001600160a01b03848116602483015291519185169163dd62ed3e91604480820192602092909190829003018186803b158015620001a857600080fd5b505afa158015620001bd573d6000803e3d6000fd5b505050506040513d6020811015620001d457600080fd5b5051155b620002155760405162461bcd60e51b815260040180806020018281038252603681526020018062002f206036913960400191505060405180910390fd5b604080516001600160a01b038416602482015260448082018490528251808303909101815260649091019091526020810180516001600160e01b0390811663095ea7b360e01b179091526200026d9185916200027216565b505050565b6060620002ce826040518060400160405280602081526020017f5361666545524332303a206c6f772d6c6576656c2063616c6c206661696c6564815250856001600160a01b03166200032e60201b62001f69179092919060201c565b8051909150156200026d57808060200190516020811015620002ef57600080fd5b50516200026d5760405162461bcd60e51b815260040180806020018281038252602a81526020018062002ef6602a913960400191505060405180910390fd5b60606200033f848460008562000349565b90505b9392505050565b6060824710156200038c5760405162461bcd60e51b815260040180806020018281038252602681526020018062002ed06026913960400191505060405180910390fd5b6200039785620004b1565b620003e9576040805162461bcd60e51b815260206004820152601d60248201527f416464726573733a2063616c6c20746f206e6f6e2d636f6e7472616374000000604482015290519081900360640190fd5b60006060866001600160a01b031685876040518082805190602001908083835b602083106200042a5780518252601f19909201916020918201910162000409565b6001836020036101000a03801982511681845116808217855250505050505090500191505060006040518083038185875af1925050503d80600081146200048e576040519150601f19603f3d011682016040523d82523d6000602084013e62000493565b606091505b509092509050620004a6828286620004b7565b979650505050505050565b3b151590565b60608315620004c857508162000342565b825115620004d95782518084602001fd5b8160405162461bcd60e51b81526004018080602001828103825283818151815260200191508051906020019080838360005b83811015620005255781810151838201526020016200050b565b50505050905090810190601f168015620005535780820380516001836020036101000a031916815260200191505b509250505060405180910390fd5b60805160601c60a05160601c60c05160601c6128e9620005e7600039806108855280610c3d5280610e6352806111ae52806114f952806119215280611dc45280612263525080611a605280611b7252508061097d52806109f95280610cf75280610d4c5280610dc2528061128f52806117ce52806119ef5280611de852506128e96000f3fe608060405234801561001057600080fd5b50600436106102ad5760003560e01c8063853828b61161017b578063db2e21bc116100d8578063f0f442601161008c578063f851a44011610071578063f851a44014610548578063fb1db27814610550578063fc0c546a14610558576102ad565b8063f0f44260146104fc578063f2fde38b14610522576102ad565b8063df10b4e6116100bd578063df10b4e6146104e4578063e941fa78146104ec578063ec78e832146104f4576102ad565b8063db2e21bc146104b6578063def68a9c146104be576102ad565b8063b60f05311161012f578063b6b55f2511610114578063b6b55f2514610491578063bdca9165146104ae578063d4b0de2f1461033a576102ad565b8063b60f05311461046c578063b6ac642a14610474576102ad565b80638da5cb5b116101605780638da5cb5b1461045457806390321e1a1461045c5780639d72596b14610464576102ad565b8063853828b614610444578063877887821461044c576102ad565b806348a0d7541161022957806370897b23116101dd578063722713f7116101c2578063722713f71461042c57806377c7b8fc146104345780638456cb591461043c576102ad565b806370897b2314610407578063715018a614610424576102ad565b80635c975abb1161020e5780635c975abb146103a157806361d027b3146103bd578063704b6c02146103e1576102ad565b806348a0d7541461039157806358ebceb614610399576102ad565b80632cfc5f01116102805780633a98ef39116102655780633a98ef39146103795780633f4ba83a146103815780634641257d14610389576102ad565b80632cfc5f01146103545780632e1a7d4d1461035c576102ad565b80631959a002146102b25780631efac1b8146102fe578063264658261461031d5780632ad5a53f1461033a575b600080fd5b6102d8600480360360208110156102c857600080fd5b50356001600160a01b0316610560565b604080519485526020850193909352838301919091526060830152519081900360800190f35b61031b6004803603602081101561031457600080fd5b5035610588565b005b61031b6004803603602081101561033357600080fd5b503561061c565b6103426106ae565b60408051918252519081900360200190f35b6103426106b3565b61031b6004803603602081101561037257600080fd5b50356106ba565b610342610a60565b61031b610a66565b61031b610b3f565b610342610dbe565b610342610e5e565b6103a9610f1d565b604080519115158252519081900360200190f35b6103c5610f3e565b604080516001600160a01b039092168252519081900360200190f35b61031b600480360360208110156103f757600080fd5b50356001600160a01b0316610f4d565b61031b6004803603602081101561041d57600080fd5b503561104b565b61031b6110de565b6103426111a9565b610342611308565b61031b611342565b61031b61140f565b6103426114d9565b6103c56114df565b6103426114ee565b6103426114f4565b6103426115cc565b61031b6004803603602081101561048a57600080fd5b50356115d2565b61031b600480360360208110156104a757600080fd5b5035611664565b6103426118cc565b61031b6118d2565b61031b600480360360208110156104d457600080fd5b50356001600160a01b03166119a0565b610342611b64565b610342611b6a565b6103c5611b70565b61031b6004803603602081101561051257600080fd5b50356001600160a01b0316611b94565b61031b6004803603602081101561053857600080fd5b50356001600160a01b0316611c92565b6103c5611db3565b6103c5611dc2565b6103c5611de6565b6001602081905260009182526040909120805491810154600282015460039092015490919084565b6004546001600160a01b031633146105d5576040805162461bcd60e51b815260206004820152600b60248201526a61646d696e3a207775743f60a81b604482015290519081900360640190fd5b6203f4808111156106175760405162461bcd60e51b815260040180806020018281038252603d8152602001806127e7603d913960400191505060405180910390fd5b600955565b6004546001600160a01b03163314610669576040805162461bcd60e51b815260206004820152600b60248201526a61646d696e3a207775743f60a81b604482015290519081900360640190fd5b60648111156106a95760405162461bcd60e51b81526004018080602001828103825260288152602001806127686028913960400191505060405180910390fd5b600755565b606481565b6203f48081565b6106c333611f82565b15610715576040805162461bcd60e51b815260206004820152601460248201527f636f6e7472616374206e6f7420616c6c6f776564000000000000000000000000604482015290519081900360640190fd5b333214610769576040805162461bcd60e51b815260206004820152601a60248201527f70726f787920636f6e7472616374206e6f7420616c6c6f776564000000000000604482015290519081900360640190fd5b336000908152600160205260409020816107ca576040805162461bcd60e51b815260206004820152601360248201527f4e6f7468696e6720746f20776974686472617700000000000000000000000000604482015290519081900360640190fd5b8054821115610820576040805162461bcd60e51b815260206004820152601f60248201527f576974686472617720616d6f756e7420657863656564732062616c616e636500604482015290519081900360640190fd5b600061084060025461083a856108346111a9565b90611f88565b90611fea565b825490915061084f9084612051565b825560025461085e9084612051565b600255600061086b610dbe565b9050818110156109345760006108818383612051565b90507f00000000000000000000000000000000000000000000000000000000000000006001600160a01b0316631058d281826040518263ffffffff1660e01b815260040180828152602001915050600060405180830381600087803b1580156108e957600080fd5b505af11580156108fd573d6000803e3d6000fd5b50505050600061090b610dbe565b905060006109198285612051565b9050828110156109305761092d84826120ae565b94505b5050505b6009546001840154610945916120ae565b4210156109b457600061096961271061083a60085486611f8890919063ffffffff16565b6005549091506109a6906001600160a01b037f00000000000000000000000000000000000000000000000000000000000000008116911683612108565b6109b08382612051565b9250505b8254156109de576109d460025461083a6109cc6111a9565b865490611f88565b60028401556109e6565b600060028401555b426003840155610a206001600160a01b037f0000000000000000000000000000000000000000000000000000000000000000163384612108565b6040805183815260208101869052815133927ff279e6a1f5e320cca91135676d9cb6e44ca8a08c0b88342bcdb1144f6511b568928290030190a250505050565b60025481565b6004546001600160a01b03163314610ab3576040805162461bcd60e51b815260206004820152600b60248201526a61646d696e3a207775743f60a81b604482015290519081900360640190fd5b610abb610f1d565b610b0c576040805162461bcd60e51b815260206004820152601460248201527f5061757361626c653a206e6f7420706175736564000000000000000000000000604482015290519081900360640190fd5b610b14612188565b6040517f7805862f689e2f13df9f062ff482ad3ad112aca9e0847911ed832e158c525b3390600090a1565b610b4833611f82565b15610b9a576040805162461bcd60e51b815260206004820152601460248201527f636f6e7472616374206e6f7420616c6c6f776564000000000000000000000000604482015290519081900360640190fd5b333214610bee576040805162461bcd60e51b815260206004820152601a60248201527f70726f787920636f6e7472616374206e6f7420616c6c6f776564000000000000604482015290519081900360640190fd5b610bf6610f1d565b15610c3b576040805162461bcd60e51b815260206004820152601060248201526f14185d5cd8589b194e881c185d5cd95960821b604482015290519081900360640190fd5b7f00000000000000000000000000000000000000000000000000000000000000006001600160a01b0316631058d28160006040518263ffffffff1660e01b815260040180828152602001915050600060405180830381600087803b158015610ca257600080fd5b505af1158015610cb6573d6000803e3d6000fd5b505050506000610cc4610dbe565b90506000610ce361271061083a60065485611f8890919063ffffffff16565b600554909150610d20906001600160a01b037f00000000000000000000000000000000000000000000000000000000000000008116911683612108565b6000610d3d61271061083a60075486611f8890919063ffffffff16565b9050610d736001600160a01b037f0000000000000000000000000000000000000000000000000000000000000000163383612108565b610d7b61224f565b426003556040805183815260208101839052815133927f71bab65ced2e5750775a0613be067df48ef06cf92a496ebf7663ae0660924954928290030190a2505050565b60007f00000000000000000000000000000000000000000000000000000000000000006001600160a01b03166370a08231306040518263ffffffff1660e01b815260040180826001600160a01b0316815260200191505060206040518083038186803b158015610e2d57600080fd5b505afa158015610e41573d6000803e3d6000fd5b505050506040513d6020811015610e5757600080fd5b5051905090565b6000807f00000000000000000000000000000000000000000000000000000000000000006001600160a01b031663b8e2faf56000306040518363ffffffff1660e01b815260040180838152602001826001600160a01b031681526020019250505060206040518083038186803b158015610ed757600080fd5b505afa158015610eeb573d6000803e3d6000fd5b505050506040513d6020811015610f0157600080fd5b50519050610f17610f10610dbe565b82906120ae565b91505090565b60005474010000000000000000000000000000000000000000900460ff1690565b6005546001600160a01b031681565b610f556122e3565b6001600160a01b0316610f666114df565b6001600160a01b031614610fc1576040805162461bcd60e51b815260206004820181905260248201527f4f776e61626c653a2063616c6c6572206973206e6f7420746865206f776e6572604482015290519081900360640190fd5b6001600160a01b03811661101c576040805162461bcd60e51b815260206004820152601660248201527f43616e6e6f74206265207a65726f206164647265737300000000000000000000604482015290519081900360640190fd5b6004805473ffffffffffffffffffffffffffffffffffffffff19166001600160a01b0392909216919091179055565b6004546001600160a01b03163314611098576040805162461bcd60e51b815260206004820152600b60248201526a61646d696e3a207775743f60a81b604482015290519081900360640190fd5b6101f48111156110d95760405162461bcd60e51b81526004018080602001828103825260368152602001806127906036913960400191505060405180910390fd5b600655565b6110e66122e3565b6001600160a01b03166110f76114df565b6001600160a01b031614611152576040805162461bcd60e51b815260206004820181905260248201527f4f776e61626c653a2063616c6c6572206973206e6f7420746865206f776e6572604482015290519081900360640190fd5b600080546040516001600160a01b03909116907f8be0079c531659141344cd1fd0a4f28419497f9722a3daafe3b4186f6b6457e0908390a36000805473ffffffffffffffffffffffffffffffffffffffff19169055565b6000807f00000000000000000000000000000000000000000000000000000000000000006001600160a01b03166393f1a40b6000306040518363ffffffff1660e01b815260040180838152602001826001600160a01b0316815260200192505050604080518083038186803b15801561122157600080fd5b505afa158015611235573d6000803e3d6000fd5b505050506040513d604081101561124b57600080fd5b5051604080517f70a082310000000000000000000000000000000000000000000000000000000081523060048201529051919250610f179183916001600160a01b037f000000000000000000000000000000000000000000000000000000000000000016916370a0823191602480820192602092909190829003018186803b1580156112d657600080fd5b505afa1580156112ea573d6000803e3d6000fd5b505050506040513d602081101561130057600080fd5b5051906120ae565b60006002546000146113335761132e60025461083a670de0b6b3a76400006108346111a9565b61133d565b670de0b6b3a76400005b905090565b6004546001600160a01b0316331461138f576040805162461bcd60e51b815260206004820152600b60248201526a61646d696e3a207775743f60a81b604482015290519081900360640190fd5b611397610f1d565b156113dc576040805162461bcd60e51b815260206004820152601060248201526f14185d5cd8589b194e881c185d5cd95960821b604482015290519081900360640190fd5b6113e46122e7565b6040517f6985a02210a168e66602d3235cb6db0e70f92b3ba4d376a33c0f3d9434bff62590600090a1565b61141833611f82565b1561146a576040805162461bcd60e51b815260206004820152601460248201527f636f6e7472616374206e6f7420616c6c6f776564000000000000000000000000604482015290519081900360640190fd5b3332146114be576040805162461bcd60e51b815260206004820152601a60248201527f70726f787920636f6e7472616374206e6f7420616c6c6f776564000000000000604482015290519081900360640190fd5b336000908152600160205260409020546114d7906106ba565b565b60065481565b6000546001600160a01b031690565b60075481565b6000807f00000000000000000000000000000000000000000000000000000000000000006001600160a01b031663b8e2faf56000306040518363ffffffff1660e01b815260040180838152602001826001600160a01b031681526020019250505060206040518083038186803b15801561156d57600080fd5b505afa158015611581573d6000803e3d6000fd5b505050506040513d602081101561159757600080fd5b505190506115a6610f10610dbe565b905060006115c561271061083a60075485611f8890919063ffffffff16565b9250505090565b60035481565b6004546001600160a01b0316331461161f576040805162461bcd60e51b815260206004820152600b60248201526a61646d696e3a207775743f60a81b604482015290519081900360640190fd5b606481111561165f5760405162461bcd60e51b815260040180806020018281038252603081526020018061284e6030913960400191505060405180910390fd5b600855565b61166c610f1d565b156116b1576040805162461bcd60e51b815260206004820152601060248201526f14185d5cd8589b194e881c185d5cd95960821b604482015290519081900360640190fd5b6116ba33611f82565b1561170c576040805162461bcd60e51b815260206004820152601460248201527f636f6e7472616374206e6f7420616c6c6f776564000000000000000000000000604482015290519081900360640190fd5b333214611760576040805162461bcd60e51b815260206004820152601a60248201527f70726f787920636f6e7472616374206e6f7420616c6c6f776564000000000000604482015290519081900360640190fd5b600081116117b5576040805162461bcd60e51b815260206004820152601260248201527f4e6f7468696e6720746f206465706f7369740000000000000000000000000000604482015290519081900360640190fd5b60006117bf6111a9565b90506117f66001600160a01b037f00000000000000000000000000000000000000000000000000000000000000001633308561239c565b60006002546000146118225761181b8261083a60025486611f8890919063ffffffff16565b9050611825565b50815b336000908152600160205260409020805461184090836120ae565b815542600182015560025461185590836120ae565b60028190556118719061083a6118696111a9565b845490611f88565b600282015542600382015561188461224f565b60408051858152602081018490524281830152905133917f36af321ec8d3c75236829c5317affd40ddb308863a1236d2d277a4025cccee1e919081900360600190a250505050565b6101f481565b6004546001600160a01b0316331461191f576040805162461bcd60e51b815260206004820152600b60248201526a61646d696e3a207775743f60a81b604482015290519081900360640190fd5b7f00000000000000000000000000000000000000000000000000000000000000006001600160a01b0316635312ea8e60006040518263ffffffff1660e01b815260040180828152602001915050600060405180830381600087803b15801561198657600080fd5b505af115801561199a573d6000803e3d6000fd5b50505050565b6004546001600160a01b031633146119ed576040805162461bcd60e51b815260206004820152600b60248201526a61646d696e3a207775743f60a81b604482015290519081900360640190fd5b7f00000000000000000000000000000000000000000000000000000000000000006001600160a01b0316816001600160a01b03161415611a5e5760405162461bcd60e51b81526004018080602001828103825260258152602001806126f86025913960400191505060405180910390fd5b7f00000000000000000000000000000000000000000000000000000000000000006001600160a01b0316816001600160a01b03161415611acf5760405162461bcd60e51b81526004018080602001828103825260258152602001806127436025913960400191505060405180910390fd5b6000816001600160a01b03166370a08231306040518263ffffffff1660e01b815260040180826001600160a01b0316815260200191505060206040518083038186803b158015611b1e57600080fd5b505afa158015611b32573d6000803e3d6000fd5b505050506040513d6020811015611b4857600080fd5b50519050611b606001600160a01b0383163383612108565b5050565b60095481565b60085481565b7f000000000000000000000000000000000000000000000000000000000000000081565b611b9c6122e3565b6001600160a01b0316611bad6114df565b6001600160a01b031614611c08576040805162461bcd60e51b815260206004820181905260248201527f4f776e61626c653a2063616c6c6572206973206e6f7420746865206f776e6572604482015290519081900360640190fd5b6001600160a01b038116611c63576040805162461bcd60e51b815260206004820152601660248201527f43616e6e6f74206265207a65726f206164647265737300000000000000000000604482015290519081900360640190fd5b6005805473ffffffffffffffffffffffffffffffffffffffff19166001600160a01b0392909216919091179055565b611c9a6122e3565b6001600160a01b0316611cab6114df565b6001600160a01b031614611d06576040805162461bcd60e51b815260206004820181905260248201527f4f776e61626c653a2063616c6c6572206973206e6f7420746865206f776e6572604482015290519081900360640190fd5b6001600160a01b038116611d4b5760405162461bcd60e51b81526004018080602001828103825260268152602001806126d26026913960400191505060405180910390fd5b600080546040516001600160a01b03808516939216917f8be0079c531659141344cd1fd0a4f28419497f9722a3daafe3b4186f6b6457e091a36000805473ffffffffffffffffffffffffffffffffffffffff19166001600160a01b0392909216919091179055565b6004546001600160a01b031681565b7f000000000000000000000000000000000000000000000000000000000000000081565b7f000000000000000000000000000000000000000000000000000000000000000081565b801580611ea95750604080517fdd62ed3e0000000000000000000000000000000000000000000000000000000081523060048201526001600160a01b03848116602483015291519185169163dd62ed3e91604480820192602092909190829003018186803b158015611e7b57600080fd5b505afa158015611e8f573d6000803e3d6000fd5b505050506040513d6020811015611ea557600080fd5b5051155b611ee45760405162461bcd60e51b815260040180806020018281038252603681526020018061287e6036913960400191505060405180910390fd5b604080516001600160a01b038416602482015260448082018490528251808303909101815260649091019091526020810180517bffffffffffffffffffffffffffffffffffffffffffffffffffffffff167f095ea7b300000000000000000000000000000000000000000000000000000000179052611f64908490612420565b505050565b6060611f7884846000856124d1565b90505b9392505050565b3b151590565b600082611f9757506000611fe4565b82820282848281611fa457fe5b0414611fe15760405162461bcd60e51b81526004018080602001828103825260218152602001806127c66021913960400191505060405180910390fd5b90505b92915050565b6000808211612040576040805162461bcd60e51b815260206004820152601a60248201527f536166654d6174683a206469766973696f6e206279207a65726f000000000000604482015290519081900360640190fd5b81838161204957fe5b049392505050565b6000828211156120a8576040805162461bcd60e51b815260206004820152601e60248201527f536166654d6174683a207375627472616374696f6e206f766572666c6f770000604482015290519081900360640190fd5b50900390565b600082820183811015611fe1576040805162461bcd60e51b815260206004820152601b60248201527f536166654d6174683a206164646974696f6e206f766572666c6f770000000000604482015290519081900360640190fd5b604080516001600160a01b038416602482015260448082018490528251808303909101815260649091019091526020810180517bffffffffffffffffffffffffffffffffffffffffffffffffffffffff167fa9059cbb00000000000000000000000000000000000000000000000000000000179052611f64908490612420565b612190610f1d565b6121e1576040805162461bcd60e51b815260206004820152601460248201527f5061757361626c653a206e6f7420706175736564000000000000000000000000604482015290519081900360640190fd5b600080547fffffffffffffffffffffff00ffffffffffffffffffffffffffffffffffffffff1690557f5db9ee0a495bf2e6ff9c91a7834c1ba4fdd244a5e8aa4e537bd38aeae4b073aa6122326122e3565b604080516001600160a01b039092168252519081900360200190a1565b6000612259610dbe565b905080156122e0577f00000000000000000000000000000000000000000000000000000000000000006001600160a01b03166341441d3b826040518263ffffffff1660e01b815260040180828152602001915050600060405180830381600087803b1580156122c757600080fd5b505af11580156122db573d6000803e3d6000fd5b505050505b50565b3390565b6122ef610f1d565b15612334576040805162461bcd60e51b815260206004820152601060248201526f14185d5cd8589b194e881c185d5cd95960821b604482015290519081900360640190fd5b600080547fffffffffffffffffffffff00ffffffffffffffffffffffffffffffffffffffff16740100000000000000000000000000000000000000001790557f62e78cea01bee320cd4e420270b5ea74000d11b0c9f74754ebdbfc544b05a2586122326122e3565b604080516001600160a01b0380861660248301528416604482015260648082018490528251808303909101815260849091019091526020810180517bffffffffffffffffffffffffffffffffffffffffffffffffffffffff167f23b872dd0000000000000000000000000000000000000000000000000000000017905261199a9085905b6060612475826040518060400160405280602081526020017f5361666545524332303a206c6f772d6c6576656c2063616c6c206661696c6564815250856001600160a01b0316611f699092919063ffffffff16565b805190915015611f645780806020019051602081101561249457600080fd5b5051611f645760405162461bcd60e51b815260040180806020018281038252602a815260200180612824602a913960400191505060405180910390fd5b6060824710156125125760405162461bcd60e51b815260040180806020018281038252602681526020018061271d6026913960400191505060405180910390fd5b61251b85611f82565b61256c576040805162461bcd60e51b815260206004820152601d60248201527f416464726573733a2063616c6c20746f206e6f6e2d636f6e7472616374000000604482015290519081900360640190fd5b60006060866001600160a01b031685876040518082805190602001908083835b602083106125ab5780518252601f19909201916020918201910161258c565b6001836020036101000a03801982511681845116808217855250505050505090500191505060006040518083038185875af1925050503d806000811461260d576040519150601f19603f3d011682016040523d82523d6000602084013e612612565b606091505b509150915061262282828661262d565b979650505050505050565b6060831561263c575081611f7b565b82511561264c5782518084602001fd5b8160405162461bcd60e51b81526004018080602001828103825283818151815260200191508051906020019080838360005b8381101561269657818101518382015260200161267e565b50505050905090810190601f1680156126c35780820380516001836020036101000a031916815260200191505b509250505060405180910390fdfe4f776e61626c653a206e6577206f776e657220697320746865207a65726f2061646472657373546f6b656e2063616e6e6f742062652073616d65206173206465706f73697420746f6b656e416464726573733a20696e73756666696369656e742062616c616e636520666f722063616c6c546f6b656e2063616e6e6f742062652073616d65206173207265636569707420746f6b656e63616c6c4665652063616e6e6f74206265206d6f7265207468616e204d41585f43414c4c5f464545706572666f726d616e63654665652063616e6e6f74206265206d6f7265207468616e204d41585f504552464f524d414e43455f464545536166654d6174683a206d756c7469706c69636174696f6e206f766572666c6f777769746864726177466565506572696f642063616e6e6f74206265206d6f7265207468616e204d41585f57495448445241575f4645455f504552494f445361666545524332303a204552433230206f7065726174696f6e20646964206e6f74207375636365656477697468647261774665652063616e6e6f74206265206d6f7265207468616e204d41585f57495448445241575f4645455361666545524332303a20617070726f76652066726f6d206e6f6e2d7a65726f20746f206e6f6e2d7a65726f20616c6c6f77616e6365a264697066735822122044ff494d3c6e5099de4420327d1d326ee9936dc2d088a313347d6addd1a20fe764736f6c634300060c0033416464726573733a20696e73756666696369656e742062616c616e636520666f722063616c6c5361666545524332303a204552433230206f7065726174696f6e20646964206e6f7420737563636565645361666545524332303a20617070726f76652066726f6d206e6f6e2d7a65726f20746f206e6f6e2d7a65726f20616c6c6f77616e6365",
  "immutableReferences": {
    "9554": [
      {
        "length": 32,
        "start": 2429
      },
      {
        "length": 32,
        "start": 2553
      },
      {
        "length": 32,
        "start": 3319
      },
      {
        "length": 32,
        "start": 3404
      },
      {
        "length": 32,
        "start": 3522
      },
      {
        "length": 32,
        "start": 4751
      },
      {
        "length": 32,
        "start": 6094
      },
      {
        "length": 32,
        "start": 6639
      },
      {
        "length": 32,
        "start": 7656
      }
    ],
    "9556": [
      {
        "length": 32,
        "start": 6752
      },
      {
        "length": 32,
        "start": 7026
      }
    ],
    "9558": [
      {
        "length": 32,
        "start": 2181
      },
      {
        "length": 32,
        "start": 3133
      },
      {
        "length": 32,
        "start": 3683
      },
      {
        "length": 32,
        "start": 4526
      },
      {
        "length": 32,
        "start": 5369
      },
      {
        "length": 32,
        "start": 6433
      },
      {
        "length": 32,
        "start": 7620
      },
      {
        "length": 32,
        "start": 8803
      }
    ]
  },
  "source": "\n\n// File: contracts/GuitarVault.sol\n\npragma solidity 0.6.12;\nimport '@openzeppelin/contracts/access/Ownable.sol';\nimport '@openzeppelin/contracts/utils/Pausable.sol';\nimport '@openzeppelin/contracts/token/ERC20/SafeERC20.sol';\nimport './libs/IMasterChef.sol'; \ncontract GuitarVault is Ownable, Pausable {\n    using SafeERC20 for IERC20;\n    using SafeMath for uint256;\n\n    struct UserInfo {\n        uint256 shares; // number of shares for a user\n        uint256 lastDepositedTime; // keeps track of deposited time for potential penalty\n        uint256 cakeAtLastUserAction; // keeps track of cake deposited at the last user action\n        uint256 lastUserActionTime; // keeps track of the last user action time\n    }\n\n    IERC20 public immutable token; // Cake token\n    IERC20 public immutable receiptToken; // Syrup token\n\n    IMasterChef public immutable masterchef;\n\n    mapping(address => UserInfo) public userInfo;\n\n    uint256 public totalShares;\n    uint256 public lastHarvestedTime;\n    address public admin;\n    address public treasury;\n\n    uint256 public constant MAX_PERFORMANCE_FEE = 500; // 5%\n    uint256 public constant MAX_CALL_FEE = 100; // 1%\n    uint256 public constant MAX_WITHDRAW_FEE = 100; // 1%\n    uint256 public constant MAX_WITHDRAW_FEE_PERIOD = 72 hours; // 3 days\n\n    uint256 public performanceFee = 200; // 2%\n    uint256 public callFee = 25; // 0.25%\n    uint256 public withdrawFee = 10; // 0.1%\n    uint256 public withdrawFeePeriod = 72 hours; // 3 days\n\n    event Deposit(address indexed sender, uint256 amount, uint256 shares, uint256 lastDepositedTime);\n    event Withdraw(address indexed sender, uint256 amount, uint256 shares);\n    event Harvest(address indexed sender, uint256 performanceFee, uint256 callFee);\n    event Pause();\n    event Unpause();\n\n    /**\n     * @notice Constructor\n     * @param _token: Cake token contract\n     * @param _receiptToken: Syrup token contract\n     * @param _masterchef: MasterChef contract\n     * @param _admin: address of the admin\n     * @param _treasury: address of the treasury (collects fees)\n     */\n    constructor(\n        IERC20 _token,\n        IERC20 _receiptToken,\n        IMasterChef _masterchef,\n        address _admin,\n        address _treasury\n    ) public {\n        token = _token;\n        receiptToken = _receiptToken;\n        masterchef = _masterchef;\n        admin = _admin;\n        treasury = _treasury;\n\n        // Infinite approve\n        IERC20(_token).safeApprove(address(_masterchef), uint256(-1));\n    }\n\n    /**\n     * @notice Checks if the msg.sender is the admin address\n     */\n    modifier onlyAdmin() {\n        require(msg.sender == admin, \"admin: wut?\");\n        _;\n    }\n\n    /**\n     * @notice Checks if the msg.sender is a contract or a proxy\n     */\n    modifier notContract() {\n        require(!_isContract(msg.sender), \"contract not allowed\");\n        require(msg.sender == tx.origin, \"proxy contract not allowed\");\n        _;\n    }\n\n    /**\n     * @notice Deposits funds into the Cake Vault\n     * @dev Only possible when contract not paused.\n     * @param _amount: number of tokens to deposit (in CAKE)\n     */\n    function deposit(uint256 _amount) external whenNotPaused notContract {\n        require(_amount > 0, \"Nothing to deposit\");\n\n        uint256 pool = balanceOf();\n        token.safeTransferFrom(msg.sender, address(this), _amount);\n        uint256 currentShares = 0;\n        if (totalShares != 0) {\n            currentShares = (_amount.mul(totalShares)).div(pool);\n        } else {\n            currentShares = _amount;\n        }\n        UserInfo storage user = userInfo[msg.sender];\n\n        user.shares = user.shares.add(currentShares);\n        user.lastDepositedTime = block.timestamp;\n\n        totalShares = totalShares.add(currentShares);\n\n        user.cakeAtLastUserAction = user.shares.mul(balanceOf()).div(totalShares);\n        user.lastUserActionTime = block.timestamp;\n\n        _earn();\n\n        emit Deposit(msg.sender, _amount, currentShares, block.timestamp);\n    }\n\n    /**\n     * @notice Withdraws all funds for a user\n     */\n    function withdrawAll() external notContract {\n        withdraw(userInfo[msg.sender].shares);\n    }\n\n    /**\n     * @notice Reinvests CAKE tokens into MasterChef\n     * @dev Only possible when contract not paused.\n     */\n    function harvest() external notContract whenNotPaused {\n        IMasterChef(masterchef).leaveStaking(0);\n\n        uint256 bal = available();\n        uint256 currentPerformanceFee = bal.mul(performanceFee).div(10000);\n        token.safeTransfer(treasury, currentPerformanceFee);\n\n        uint256 currentCallFee = bal.mul(callFee).div(10000);\n        token.safeTransfer(msg.sender, currentCallFee);\n\n        _earn();\n\n        lastHarvestedTime = block.timestamp;\n\n        emit Harvest(msg.sender, currentPerformanceFee, currentCallFee);\n    }\n\n    /**\n     * @notice Sets admin address\n     * @dev Only callable by the contract owner.\n     */\n    function setAdmin(address _admin) external onlyOwner {\n        require(_admin != address(0), \"Cannot be zero address\");\n        admin = _admin;\n    }\n\n    /**\n     * @notice Sets treasury address\n     * @dev Only callable by the contract owner.\n     */\n    function setTreasury(address _treasury) external onlyOwner {\n        require(_treasury != address(0), \"Cannot be zero address\");\n        treasury = _treasury;\n    }\n\n    /**\n     * @notice Sets performance fee\n     * @dev Only callable by the contract admin.\n     */\n    function setPerformanceFee(uint256 _performanceFee) external onlyAdmin {\n        require(_performanceFee <= MAX_PERFORMANCE_FEE, \"performanceFee cannot be more than MAX_PERFORMANCE_FEE\");\n        performanceFee = _performanceFee;\n    }\n\n    /**\n     * @notice Sets call fee\n     * @dev Only callable by the contract admin.\n     */\n    function setCallFee(uint256 _callFee) external onlyAdmin {\n        require(_callFee <= MAX_CALL_FEE, \"callFee cannot be more than MAX_CALL_FEE\");\n        callFee = _callFee;\n    }\n\n    /**\n     * @notice Sets withdraw fee\n     * @dev Only callable by the contract admin.\n     */\n    function setWithdrawFee(uint256 _withdrawFee) external onlyAdmin {\n        require(_withdrawFee <= MAX_WITHDRAW_FEE, \"withdrawFee cannot be more than MAX_WITHDRAW_FEE\");\n        withdrawFee = _withdrawFee;\n    }\n\n    /**\n     * @notice Sets withdraw fee period\n     * @dev Only callable by the contract admin.\n     */\n    function setWithdrawFeePeriod(uint256 _withdrawFeePeriod) external onlyAdmin {\n        require(\n            _withdrawFeePeriod <= MAX_WITHDRAW_FEE_PERIOD,\n            \"withdrawFeePeriod cannot be more than MAX_WITHDRAW_FEE_PERIOD\"\n        );\n        withdrawFeePeriod = _withdrawFeePeriod;\n    }\n\n    /**\n     * @notice Withdraws from MasterChef to Vault without caring about rewards.\n     * @dev EMERGENCY ONLY. Only callable by the contract admin.\n     */\n    function emergencyWithdraw() external onlyAdmin {\n        IMasterChef(masterchef).emergencyWithdraw(0);\n    }\n\n    /**\n     * @notice Withdraw unexpected tokens sent to the Cake Vault\n     */\n    function inCaseTokensGetStuck(address _token) external onlyAdmin {\n        require(_token != address(token), \"Token cannot be same as deposit token\");\n        require(_token != address(receiptToken), \"Token cannot be same as receipt token\");\n\n        uint256 amount = IERC20(_token).balanceOf(address(this));\n        IERC20(_token).safeTransfer(msg.sender, amount);\n    }\n\n    /**\n     * @notice Triggers stopped state\n     * @dev Only possible when contract not paused.\n     */\n    function pause() external onlyAdmin whenNotPaused {\n        _pause();\n        emit Pause();\n    }\n\n    /**\n     * @notice Returns to normal state\n     * @dev Only possible when contract is paused.\n     */\n    function unpause() external onlyAdmin whenPaused {\n        _unpause();\n        emit Unpause();\n    }\n\n    /**\n     * @notice Calculates the expected harvest reward from third party\n     * @return Expected reward to collect in CAKE\n     */\n    function calculateHarvestCakeRewards() external view returns (uint256) {\n        uint256 amount = IMasterChef(masterchef).pendingGuitar(0, address(this));\n        amount = amount.add(available());\n        uint256 currentCallFee = amount.mul(callFee).div(10000);\n\n        return currentCallFee;\n    }\n\n    /**\n     * @notice Calculates the total pending rewards that can be restaked\n     * @return Returns total pending cake rewards\n     */\n    function calculateTotalPendingCakeRewards() external view returns (uint256) {\n        uint256 amount = IMasterChef(masterchef).pendingGuitar(0, address(this));\n        amount = amount.add(available());\n\n        return amount;\n    }\n\n    /**\n     * @notice Calculates the price per share\n     */\n    function getPricePerFullShare() external view returns (uint256) {\n        return totalShares == 0 ? 1e18 : balanceOf().mul(1e18).div(totalShares);\n    }\n\n    /**\n     * @notice Withdraws from funds from the Cake Vault\n     * @param _shares: Number of shares to withdraw\n     */\n    function withdraw(uint256 _shares) public notContract {\n        UserInfo storage user = userInfo[msg.sender];\n        require(_shares > 0, \"Nothing to withdraw\");\n        require(_shares <= user.shares, \"Withdraw amount exceeds balance\");\n\n        uint256 currentAmount = (balanceOf().mul(_shares)).div(totalShares);\n        user.shares = user.shares.sub(_shares);\n        totalShares = totalShares.sub(_shares);\n\n        uint256 bal = available();\n        if (bal < currentAmount) {\n            uint256 balWithdraw = currentAmount.sub(bal);\n            IMasterChef(masterchef).leaveStaking(balWithdraw);\n            uint256 balAfter = available();\n            uint256 diff = balAfter.sub(bal);\n            if (diff < balWithdraw) {\n                currentAmount = bal.add(diff);\n            }\n        }\n\n        if (block.timestamp < user.lastDepositedTime.add(withdrawFeePeriod)) {\n            uint256 currentWithdrawFee = currentAmount.mul(withdrawFee).div(10000);\n            token.safeTransfer(treasury, currentWithdrawFee);\n            currentAmount = currentAmount.sub(currentWithdrawFee);\n        }\n\n        if (user.shares > 0) {\n            user.cakeAtLastUserAction = user.shares.mul(balanceOf()).div(totalShares);\n        } else {\n            user.cakeAtLastUserAction = 0;\n        }\n\n        user.lastUserActionTime = block.timestamp;\n\n        token.safeTransfer(msg.sender, currentAmount);\n\n        emit Withdraw(msg.sender, currentAmount, _shares);\n    }\n\n    /**\n     * @notice Custom logic for how much the vault allows to be borrowed\n     * @dev The contract puts 100% of the tokens to work.\n     */\n    function available() public view returns (uint256) {\n        return token.balanceOf(address(this));\n    }\n\n    /**\n     * @notice Calculates the total underlying tokens\n     * @dev It includes tokens held by the contract and held in MasterChef\n     */\n    function balanceOf() public view returns (uint256) {\n        (uint256 amount, ) = IMasterChef(masterchef).userInfo(0, address(this));\n        return token.balanceOf(address(this)).add(amount);\n    }\n\n    /**\n     * @notice Deposits tokens into MasterChef to earn staking rewards\n     */\n    function _earn() internal {\n        uint256 bal = available();\n        if (bal > 0) {\n            IMasterChef(masterchef).enterStaking(bal);\n        }\n    }\n\n    /**\n     * @notice Checks if address is a contract\n     * @dev It prevents contract from being targetted\n     */\n    function _isContract(address addr) internal view returns (bool) {\n        uint256 size;\n        assembly {\n            size := extcodesize(addr)\n        }\n        return size > 0;\n    }\n}",
  "sourcePath": "G:\\Blockchain\\Ethereum\\GuitarSwap\\Work\\PancakeSwap\\Work\\guitar-contracts\\contracts\\GuitarVault.sol",
  "compiler": {
    "name": "solc",
    "version": "0.6.12+commit.27d51765.Emscripten.clang"
  },
  "schemaVersion": "3.4.5",
  "updatedAt": "2022-03-17T16:25:04.859Z",
  "devdoc": {
    "kind": "dev",
    "methods": {
      "available()": {
        "details": "The contract puts 100% of the tokens to work."
      },
      "balanceOf()": {
        "details": "It includes tokens held by the contract and held in MasterChef"
      },
      "calculateHarvestCakeRewards()": {
        "returns": {
          "_0": "Expected reward to collect in CAKE"
        }
      },
      "calculateTotalPendingCakeRewards()": {
        "returns": {
          "_0": "Returns total pending cake rewards"
        }
      },
      "constructor": {
        "params": {
          "_admin": ": address of the admin",
          "_masterchef": ": MasterChef contract",
          "_receiptToken": ": Syrup token contract",
          "_token": ": Cake token contract",
          "_treasury": ": address of the treasury (collects fees)"
        }
      },
      "deposit(uint256)": {
        "details": "Only possible when contract not paused.",
        "params": {
          "_amount": ": number of tokens to deposit (in CAKE)"
        }
      },
      "emergencyWithdraw()": {
        "details": "EMERGENCY ONLY. Only callable by the contract admin."
      },
      "harvest()": {
        "details": "Only possible when contract not paused."
      },
      "owner()": {
        "details": "Returns the address of the current owner."
      },
      "pause()": {
        "details": "Only possible when contract not paused."
      },
      "paused()": {
        "details": "Returns true if the contract is paused, and false otherwise."
      },
      "renounceOwnership()": {
        "details": "Leaves the contract without owner. It will not be possible to call `onlyOwner` functions anymore. Can only be called by the current owner. NOTE: Renouncing ownership will leave the contract without an owner, thereby removing any functionality that is only available to the owner."
      },
      "setAdmin(address)": {
        "details": "Only callable by the contract owner."
      },
      "setCallFee(uint256)": {
        "details": "Only callable by the contract admin."
      },
      "setPerformanceFee(uint256)": {
        "details": "Only callable by the contract admin."
      },
      "setTreasury(address)": {
        "details": "Only callable by the contract owner."
      },
      "setWithdrawFee(uint256)": {
        "details": "Only callable by the contract admin."
      },
      "setWithdrawFeePeriod(uint256)": {
        "details": "Only callable by the contract admin."
      },
      "transferOwnership(address)": {
        "details": "Transfers ownership of the contract to a new account (`newOwner`). Can only be called by the current owner."
      },
      "unpause()": {
        "details": "Only possible when contract is paused."
      },
      "withdraw(uint256)": {
        "params": {
          "_shares": ": Number of shares to withdraw"
        }
      }
    },
    "version": 1
  },
  "userdoc": {
    "kind": "user",
    "methods": {
      "available()": {
        "notice": "Custom logic for how much the vault allows to be borrowed"
      },
      "balanceOf()": {
        "notice": "Calculates the total underlying tokens"
      },
      "calculateHarvestCakeRewards()": {
        "notice": "Calculates the expected harvest reward from third party"
      },
      "calculateTotalPendingCakeRewards()": {
        "notice": "Calculates the total pending rewards that can be restaked"
      },
      "constructor": "Constructor",
      "deposit(uint256)": {
        "notice": "Deposits funds into the Cake Vault"
      },
      "emergencyWithdraw()": {
        "notice": "Withdraws from MasterChef to Vault without caring about rewards."
      },
      "getPricePerFullShare()": {
        "notice": "Calculates the price per share"
      },
      "harvest()": {
        "notice": "Reinvests CAKE tokens into MasterChef"
      },
      "inCaseTokensGetStuck(address)": {
        "notice": "Withdraw unexpected tokens sent to the Cake Vault"
      },
      "pause()": {
        "notice": "Triggers stopped state"
      },
      "setAdmin(address)": {
        "notice": "Sets admin address"
      },
      "setCallFee(uint256)": {
        "notice": "Sets call fee"
      },
      "setPerformanceFee(uint256)": {
        "notice": "Sets performance fee"
      },
      "setTreasury(address)": {
        "notice": "Sets treasury address"
      },
      "setWithdrawFee(uint256)": {
        "notice": "Sets withdraw fee"
      },
      "setWithdrawFeePeriod(uint256)": {
        "notice": "Sets withdraw fee period"
      },
      "unpause()": {
        "notice": "Returns to normal state"
      },
      "withdraw(uint256)": {
        "notice": "Withdraws from funds from the Cake Vault"
      },
      "withdrawAll()": {
        "notice": "Withdraws all funds for a user"
      }
    },
    "version": 1
  }
}