{
  "contractName": "GuitarNftStaking",
  "abi": [
    {
      "inputs": [
        {
          "internalType": "address",
          "name": "__stakeNftAddress",
          "type": "address"
        },
        {
          "internalType": "address",
          "name": "__rewardTokenAddress",
          "type": "address"
        },
        {
          "internalType": "uint256",
          "name": "__startBlock",
          "type": "uint256"
        },
        {
          "internalType": "uint256",
          "name": "__endBlock",
          "type": "uint256"
        },
        {
          "internalType": "uint256",
          "name": "__rewardPerBlock",
          "type": "uint256"
        }
      ],
      "stateMutability": "nonpayable",
      "type": "constructor"
    },
    {
      "anonymous": false,
      "inputs": [
        {
          "indexed": true,
          "internalType": "address",
          "name": "account",
          "type": "address"
        },
        {
          "indexed": false,
          "internalType": "uint256",
          "name": "amount",
          "type": "uint256"
        }
      ],
      "name": "Harvested",
      "type": "event"
    },
    {
      "anonymous": false,
      "inputs": [
        {
          "indexed": true,
          "internalType": "address",
          "name": "account",
          "type": "address"
        },
        {
          "indexed": false,
          "internalType": "uint256",
          "name": "amountNeeded",
          "type": "uint256"
        },
        {
          "indexed": false,
          "internalType": "uint256",
          "name": "balance",
          "type": "uint256"
        }
      ],
      "name": "InsufficientRewardToken",
      "type": "event"
    },
    {
      "anonymous": false,
      "inputs": [
        {
          "indexed": true,
          "internalType": "address",
          "name": "previousOwner",
          "type": "address"
        },
        {
          "indexed": true,
          "internalType": "address",
          "name": "newOwner",
          "type": "address"
        }
      ],
      "name": "OwnershipTransferred",
      "type": "event"
    },
    {
      "anonymous": false,
      "inputs": [
        {
          "indexed": false,
          "internalType": "address",
          "name": "account",
          "type": "address"
        }
      ],
      "name": "Paused",
      "type": "event"
    },
    {
      "anonymous": false,
      "inputs": [
        {
          "indexed": false,
          "internalType": "uint256",
          "name": "oldValue",
          "type": "uint256"
        },
        {
          "indexed": false,
          "internalType": "uint256",
          "name": "newValue",
          "type": "uint256"
        }
      ],
      "name": "RewardPerBlockUpdated",
      "type": "event"
    },
    {
      "anonymous": false,
      "inputs": [
        {
          "indexed": false,
          "internalType": "address",
          "name": "oldToken",
          "type": "address"
        },
        {
          "indexed": false,
          "internalType": "address",
          "name": "newToken",
          "type": "address"
        }
      ],
      "name": "RewardTokenUpdated",
      "type": "event"
    },
    {
      "anonymous": false,
      "inputs": [
        {
          "indexed": true,
          "internalType": "address",
          "name": "account",
          "type": "address"
        },
        {
          "indexed": false,
          "internalType": "uint256",
          "name": "tokenId",
          "type": "uint256"
        }
      ],
      "name": "Staked",
      "type": "event"
    },
    {
      "anonymous": false,
      "inputs": [
        {
          "indexed": false,
          "internalType": "address",
          "name": "account",
          "type": "address"
        }
      ],
      "name": "Unpaused",
      "type": "event"
    },
    {
      "anonymous": false,
      "inputs": [
        {
          "indexed": true,
          "internalType": "address",
          "name": "account",
          "type": "address"
        },
        {
          "indexed": false,
          "internalType": "uint256",
          "name": "tokenId",
          "type": "uint256"
        }
      ],
      "name": "Withdrawn",
      "type": "event"
    },
    {
      "inputs": [],
      "name": "_endBlock",
      "outputs": [
        {
          "internalType": "uint256",
          "name": "",
          "type": "uint256"
        }
      ],
      "stateMutability": "view",
      "type": "function"
    },
    {
      "inputs": [],
      "name": "_maxNftsPerUser",
      "outputs": [
        {
          "internalType": "uint256",
          "name": "",
          "type": "uint256"
        }
      ],
      "stateMutability": "view",
      "type": "function"
    },
    {
      "inputs": [],
      "name": "_rewardPerBlock",
      "outputs": [
        {
          "internalType": "uint256",
          "name": "",
          "type": "uint256"
        }
      ],
      "stateMutability": "view",
      "type": "function"
    },
    {
      "inputs": [],
      "name": "_rewardTokenAddress",
      "outputs": [
        {
          "internalType": "address",
          "name": "",
          "type": "address"
        }
      ],
      "stateMutability": "view",
      "type": "function"
    },
    {
      "inputs": [],
      "name": "_stakeNftAddress",
      "outputs": [
        {
          "internalType": "address",
          "name": "",
          "type": "address"
        }
      ],
      "stateMutability": "view",
      "type": "function"
    },
    {
      "inputs": [],
      "name": "_startBlock",
      "outputs": [
        {
          "internalType": "uint256",
          "name": "",
          "type": "uint256"
        }
      ],
      "stateMutability": "view",
      "type": "function"
    },
    {
      "inputs": [],
      "name": "owner",
      "outputs": [
        {
          "internalType": "address",
          "name": "",
          "type": "address"
        }
      ],
      "stateMutability": "view",
      "type": "function"
    },
    {
      "inputs": [],
      "name": "paused",
      "outputs": [
        {
          "internalType": "bool",
          "name": "",
          "type": "bool"
        }
      ],
      "stateMutability": "view",
      "type": "function"
    },
    {
      "inputs": [],
      "name": "renounceOwnership",
      "outputs": [],
      "stateMutability": "nonpayable",
      "type": "function"
    },
    {
      "inputs": [
        {
          "internalType": "address",
          "name": "newOwner",
          "type": "address"
        }
      ],
      "name": "transferOwnership",
      "outputs": [],
      "stateMutability": "nonpayable",
      "type": "function"
    },
    {
      "inputs": [
        {
          "internalType": "address",
          "name": "__account",
          "type": "address"
        }
      ],
      "name": "viewUserInfo",
      "outputs": [
        {
          "internalType": "uint256[]",
          "name": "stakedNfts",
          "type": "uint256[]"
        },
        {
          "internalType": "uint256",
          "name": "rewards",
          "type": "uint256"
        },
        {
          "internalType": "uint256",
          "name": "lastRewardBlock",
          "type": "uint256"
        }
      ],
      "stateMutability": "view",
      "type": "function"
    },
    {
      "inputs": [
        {
          "internalType": "address",
          "name": "__account",
          "type": "address"
        },
        {
          "internalType": "uint256",
          "name": "__index",
          "type": "uint256"
        }
      ],
      "name": "tokenOfOwnerByIndex",
      "outputs": [
        {
          "internalType": "uint256",
          "name": "",
          "type": "uint256"
        }
      ],
      "stateMutability": "view",
      "type": "function"
    },
    {
      "inputs": [
        {
          "internalType": "address",
          "name": "__account",
          "type": "address"
        }
      ],
      "name": "userStakedNFTCount",
      "outputs": [
        {
          "internalType": "uint256",
          "name": "",
          "type": "uint256"
        }
      ],
      "stateMutability": "view",
      "type": "function"
    },
    {
      "inputs": [
        {
          "internalType": "uint256",
          "name": "__maxLimit",
          "type": "uint256"
        }
      ],
      "name": "updateMaxNftsPerUser",
      "outputs": [],
      "stateMutability": "nonpayable",
      "type": "function"
    },
    {
      "inputs": [
        {
          "internalType": "address",
          "name": "__rewardTokenAddress",
          "type": "address"
        }
      ],
      "name": "updateRewardTokenAddress",
      "outputs": [],
      "stateMutability": "nonpayable",
      "type": "function"
    },
    {
      "inputs": [
        {
          "internalType": "uint256",
          "name": "__rewardPerBlock",
          "type": "uint256"
        }
      ],
      "name": "updateRewardPerBlock",
      "outputs": [],
      "stateMutability": "nonpayable",
      "type": "function"
    },
    {
      "inputs": [
        {
          "internalType": "uint256",
          "name": "__startBlock",
          "type": "uint256"
        }
      ],
      "name": "updateStartBlock",
      "outputs": [],
      "stateMutability": "nonpayable",
      "type": "function"
    },
    {
      "inputs": [
        {
          "internalType": "uint256",
          "name": "__endBlock",
          "type": "uint256"
        }
      ],
      "name": "updateEndBlock",
      "outputs": [],
      "stateMutability": "nonpayable",
      "type": "function"
    },
    {
      "inputs": [
        {
          "internalType": "address",
          "name": "__account",
          "type": "address"
        },
        {
          "internalType": "uint256",
          "name": "__tokenId",
          "type": "uint256"
        }
      ],
      "name": "isStaked",
      "outputs": [
        {
          "internalType": "bool",
          "name": "",
          "type": "bool"
        }
      ],
      "stateMutability": "view",
      "type": "function"
    },
    {
      "inputs": [
        {
          "internalType": "address",
          "name": "__account",
          "type": "address"
        }
      ],
      "name": "pendingRewards",
      "outputs": [
        {
          "internalType": "uint256",
          "name": "",
          "type": "uint256"
        }
      ],
      "stateMutability": "view",
      "type": "function"
    },
    {
      "inputs": [
        {
          "internalType": "uint256[]",
          "name": "tokenIdList",
          "type": "uint256[]"
        }
      ],
      "name": "stake",
      "outputs": [],
      "stateMutability": "nonpayable",
      "type": "function"
    },
    {
      "inputs": [
        {
          "internalType": "uint256[]",
          "name": "tokenIdList",
          "type": "uint256[]"
        }
      ],
      "name": "withdraw",
      "outputs": [],
      "stateMutability": "nonpayable",
      "type": "function"
    },
    {
      "inputs": [
        {
          "internalType": "address",
          "name": "",
          "type": "address"
        },
        {
          "internalType": "address",
          "name": "",
          "type": "address"
        },
        {
          "internalType": "uint256",
          "name": "",
          "type": "uint256"
        },
        {
          "internalType": "bytes",
          "name": "",
          "type": "bytes"
        }
      ],
      "name": "onERC721Received",
      "outputs": [
        {
          "internalType": "bytes4",
          "name": "",
          "type": "bytes4"
        }
      ],
      "stateMutability": "nonpayable",
      "type": "function"
    }
  ],
  "bytecode": "0x6080604052670de0b6b3a764000060045560016005553480156200002257600080fd5b50604051620023a3380380620023a3833981810160405260a08110156200004857600080fd5b50805160208201516040830151606084015160809094015192939192909190600062000073620002d5565b600080546001600160a01b0319166001600160a01b0383169081178255604051929350917f8be0079c531659141344cd1fd0a4f28419497f9722a3daafe3b4186f6b6457e0908290a350600180556002805460ff19169055604080516370a0823160e01b815230600482015290516001600160a01b038616916370a08231916024808301926020929190829003018186803b1580156200011257600080fd5b505afa15801562000127573d6000803e3d6000fd5b505050506040513d60208110156200013e57600080fd5b5050604080516370a0823160e01b815230600482015290516001600160a01b038716916370a08231916024808301926020929190829003018186803b1580156200018757600080fd5b505afa1580156200019c573d6000803e3d6000fd5b505050506040513d6020811015620001b357600080fd5b50508062000208576040805162461bcd60e51b815260206004820152601860248201527f496e76616c6964207265776172642070657220626c6f636b0000000000000000604482015290519081900360640190fd5b81831115620002495760405162461bcd60e51b8152600401808060200182810382526024815260200180620023586024913960400191505060405180910390fd5b438311620002895760405162461bcd60e51b81526004018080602001828103825260278152602001806200237c6027913960400191505060405180910390fd5b60028054610100600160a81b0319166101006001600160a01b0397881602179055600380546001600160a01b0319169490951693909317909355600491909155600655600755620002d9565b3390565b61206f80620002e96000396000f3fe608060405234801561001057600080fd5b506004361061018c5760003560e01c8063715018a6116100e3578063cd0559eb1161008c578063fac2b9ba11610066578063fac2b9ba146105ea578063fd1a239714610607578063fed287ad1461062d5761018c565b8063cd0559eb14610596578063f2fde38b146105bc578063f5cec929146105e25761018c565b8063983d95ce116100bd578063983d95ce14610463578063a09d095414610506578063a37d98501461050e5761018c565b8063715018a61461044b57806389fece63146104535780638da5cb5b1461045b5761018c565b80632c71ecb6116101455780635451da1b1161011f5780635451da1b146103fb5780635c975abb1461043b5780636cf7a88e146104435761018c565b80632c71ecb61461038f5780632f745c59146103a957806331d7a262146103d55761018c565b806305c85b401161017657806305c85b40146101cd5780630fbf0a93146101f1578063150b7a02146102945761018c565b80626f02311461019157806301f8a976146101b0575b600080fd5b6101ae600480360360208110156101a757600080fd5b503561064a565b005b6101ae600480360360208110156101c657600080fd5b5035610742565b6101d561084d565b604080516001600160a01b039092168252519081900360200190f35b6101ae6004803603602081101561020757600080fd5b81019060208101813564010000000081111561022257600080fd5b82018360208201111561023457600080fd5b8035906020019184602083028401116401000000008311171561025657600080fd5b91908080602002602001604051908101604052809392919081815260200183836020028082843760009201919091525092955061085c945050505050565b61035a600480360360808110156102aa57600080fd5b6001600160a01b038235811692602081013590911691604082013591908101906080810160608201356401000000008111156102e557600080fd5b8201836020820111156102f757600080fd5b8035906020019184600183028401116401000000008311171561031957600080fd5b91908080601f016020809104026020016040519081016040528093929190818152602001838380828437600092019190915250929550610c59945050505050565b604080517fffffffff000000000000000000000000000000000000000000000000000000009092168252519081900360200190f35b610397610c82565b60408051918252519081900360200190f35b610397600480360360408110156103bf57600080fd5b506001600160a01b038135169060200135610c88565b610397600480360360208110156103eb57600080fd5b50356001600160a01b0316610cb4565b6104276004803603604081101561041157600080fd5b506001600160a01b038135169060200135610d59565b604080519115158252519081900360200190f35b610427610d7b565b6101d5610d84565b6101ae610d98565b610397610e63565b6101d5610e69565b6101ae6004803603602081101561047957600080fd5b81019060208101813564010000000081111561049457600080fd5b8201836020820111156104a657600080fd5b803590602001918460208302840111640100000000831117156104c857600080fd5b919080806020026020016040519081016040528093929190818152602001838360200280828437600092019190915250929550610e78945050505050565b610397611198565b6105346004803603602081101561052457600080fd5b50356001600160a01b031661119e565b6040518080602001848152602001838152602001828103825285818151815260200191508051906020019060200280838360005b83811015610580578181015183820152602001610568565b5050505090500194505050505060405180910390f35b610397600480360360208110156105ac57600080fd5b50356001600160a01b0316611270565b6101ae600480360360208110156105d257600080fd5b50356001600160a01b0316611298565b6103976113b9565b6101ae6004803603602081101561060057600080fd5b50356113bf565b6101ae6004803603602081101561061d57600080fd5b50356001600160a01b031661150d565b6101ae6004803603602081101561064357600080fd5b50356116c0565b61065261178e565b6001600160a01b0316610663610e69565b6001600160a01b0316146106be576040805162461bcd60e51b815260206004820181905260248201527f4f776e61626c653a2063616c6c6572206973206e6f7420746865206f776e6572604482015290519081900360640190fd5b6006548110156106ff5760405162461bcd60e51b8152600401808060200182810382526023815260200180611fed6023913960400191505060405180910390fd5b43811161073d5760405162461bcd60e51b8152600401808060200182810382526025815260200180611eef6025913960400191505060405180910390fd5b600755565b61074a61178e565b6001600160a01b031661075b610e69565b6001600160a01b0316146107b6576040805162461bcd60e51b815260206004820181905260248201527f4f776e61626c653a2063616c6c6572206973206e6f7420746865206f776e6572604482015290519081900360640190fd5b6000811161080b576040805162461bcd60e51b815260206004820152601860248201527f496e76616c6964207265776172642070657220626c6f636b0000000000000000604482015290519081900360640190fd5b600454604080519182526020820183905280517f842e6f2b482c6f39924c8be7b71d40631362ef78f833f0371ceb2649edc5fb109281900390910190a1600455565b6003546001600160a01b031681565b600260015414156108b4576040805162461bcd60e51b815260206004820152601f60248201527f5265656e7472616e637947756172643a207265656e7472616e742063616c6c00604482015290519081900360640190fd5b60026001556108c1610d7b565b15610913576040805162461bcd60e51b815260206004820152601060248201527f5061757361626c653a2070617573656400000000000000000000000000000000604482015290519081900360640190fd5b60025461010090046001600160a01b031663e985e9c561093161178e565b306040518363ffffffff1660e01b815260040180836001600160a01b03168152602001826001600160a01b031681526020019250505060206040518083038186803b15801561097f57600080fd5b505afa158015610993573d6000803e3d6000fd5b505050506040513d60208110156109a957600080fd5b50516109e65760405162461bcd60e51b8152600401808060200182810382526021815260200180611fa56021913960400191505060405180910390fd5b600554610a0482516109fe6109f961178e565b611270565b90611792565b1115610a57576040805162461bcd60e51b815260206004820152601e60248201527f4578636565647320746865206d6178206c696d69742070657220757365720000604482015290519081900360640190fd5b600060086000610a6561178e565b6001600160a01b03166001600160a01b0316815260200190815260200160002090506000610a99610a9461178e565b610cb4565b90508015610b0f576000610ab4610aae61178e565b836117ec565b9050610ac082826118f8565b6002840155610acd61178e565b6001600160a01b03167f121c5042302bae5fc561fbc64368f297ca60a880878e1e3a7f7e9380377260bf826040518082815260200191505060405180910390a2505b60005b8351811015610c495760025461010090046001600160a01b03166342842e0e610b3961178e565b30878581518110610b4657fe5b60200260200101516040518463ffffffff1660e01b815260040180846001600160a01b03168152602001836001600160a01b031681526020018281526020019350505050600060405180830381600087803b158015610ba457600080fd5b505af1158015610bb8573d6000803e3d6000fd5b50505050610be5848281518110610bcb57fe5b60200260200101518460000161195590919063ffffffff16565b50610bee61178e565b6001600160a01b03167f9e71bc8eea02a63969f509818f2dafb9254532904319f9dbda79b67bd34a5f3d858381518110610c2457fe5b60200260200101516040518082815260200191505060405180910390a2600101610b12565b5050436003909101555060018055565b7f150b7a0200000000000000000000000000000000000000000000000000000000949350505050565b60065481565b6001600160a01b0382166000908152600860205260408120610caa8184611961565b9150505b92915050565b6001600160a01b03811660009081526008602052604081206006546003820154839111610ce5578160030154610ce9565b6006545b905060006007544310610cfe57600754610d00565b435b905081811015610d17575050600201549050610d54565b6000610d3b600454610d35610d2b89611270565b610d3586886118f8565b9061196d565b6002850154909150610d4d9082611792565b9450505050505b919050565b6001600160a01b0382166000908152600860205260408120610caa81846119c6565b60025460ff1690565b60025461010090046001600160a01b031681565b610da061178e565b6001600160a01b0316610db1610e69565b6001600160a01b031614610e0c576040805162461bcd60e51b815260206004820181905260248201527f4f776e61626c653a2063616c6c6572206973206e6f7420746865206f776e6572604482015290519081900360640190fd5b600080546040516001600160a01b03909116907f8be0079c531659141344cd1fd0a4f28419497f9722a3daafe3b4186f6b6457e0908390a36000805473ffffffffffffffffffffffffffffffffffffffff19169055565b60055481565b6000546001600160a01b031690565b60026001541415610ed0576040805162461bcd60e51b815260206004820152601f60248201527f5265656e7472616e637947756172643a207265656e7472616e742063616c6c00604482015290519081900360640190fd5b60026001556000600881610ee261178e565b6001600160a01b03166001600160a01b0316815260200190815260200160002090506000610f11610a9461178e565b90508015610f81576000610f26610aae61178e565b9050610f3282826118f8565b6002840155610f3f61178e565b6001600160a01b03167f121c5042302bae5fc561fbc64368f297ca60a880878e1e3a7f7e9380377260bf826040518082815260200191505060405180910390a2505b60005b8351811015610c49576000848281518110610f9b57fe5b602002602001015111610ff5576040805162461bcd60e51b815260206004820152601060248201527f496e7661696c6420746f6b656e20696400000000000000000000000000000000604482015290519081900360640190fd5b61101961100061178e565b85838151811061100c57fe5b6020026020010151610d59565b61106a576040805162461bcd60e51b815260206004820152601360248201527f4e6f74207374616b65642074686973206e667400000000000000000000000000604482015290519081900360640190fd5b60025461010090046001600160a01b03166342842e0e3061108961178e565b87858151811061109557fe5b60200260200101516040518463ffffffff1660e01b815260040180846001600160a01b03168152602001836001600160a01b031681526020018281526020019350505050600060405180830381600087803b1580156110f357600080fd5b505af1158015611107573d6000803e3d6000fd5b5050505061113484828151811061111a57fe5b6020026020010151846000016119d290919063ffffffff16565b5061113d61178e565b6001600160a01b03167f7084f5476618d8e60b11ef0d7d3f06914655adb8793e28ff7f018d4c76d505d585838151811061117357fe5b60200260200101516040518082815260200191505060405180910390a2600101610f84565b60045481565b6001600160a01b038116600090815260086020526040812060028101546003820154606093919290916111d0826119de565b9050806111ed576040805160008152602081019091529450611267565b8067ffffffffffffffff8111801561120457600080fd5b5060405190808252806020026020018201604052801561122e578160200160208202803683370190505b50945060005b81811015611265576112468782610c88565b86828151811061125257fe5b6020908102919091010152600101611234565b505b50509193909250565b6001600160a01b0381166000908152600860205260408120611291816119de565b9392505050565b6112a061178e565b6001600160a01b03166112b1610e69565b6001600160a01b03161461130c576040805162461bcd60e51b815260206004820181905260248201527f4f776e61626c653a2063616c6c6572206973206e6f7420746865206f776e6572604482015290519081900360640190fd5b6001600160a01b0381166113515760405162461bcd60e51b8152600401808060200182810382526026815260200180611f146026913960400191505060405180910390fd5b600080546040516001600160a01b03808516939216917f8be0079c531659141344cd1fd0a4f28419497f9722a3daafe3b4186f6b6457e091a36000805473ffffffffffffffffffffffffffffffffffffffff19166001600160a01b0392909216919091179055565b60075481565b6113c761178e565b6001600160a01b03166113d8610e69565b6001600160a01b031614611433576040805162461bcd60e51b815260206004820181905260248201527f4f776e61626c653a2063616c6c6572206973206e6f7420746865206f776e6572604482015290519081900360640190fd5b6007548111156114745760405162461bcd60e51b8152600401808060200182810382526024815260200180611f816024913960400191505060405180910390fd5b4381116114b25760405162461bcd60e51b8152600401808060200182810382526027815260200180611fc66027913960400191505060405180910390fd5b4360065411611508576040805162461bcd60e51b815260206004820152601760248201527f5374616b696e67207374617274656420616c7265616479000000000000000000604482015290519081900360640190fd5b600655565b61151561178e565b6001600160a01b0316611526610e69565b6001600160a01b031614611581576040805162461bcd60e51b815260206004820181905260248201527f4f776e61626c653a2063616c6c6572206973206e6f7420746865206f776e6572604482015290519081900360640190fd5b43600654116115d7576040805162461bcd60e51b815260206004820152601760248201527f5374616b696e67207374617274656420616c7265616479000000000000000000604482015290519081900360640190fd5b604080516370a0823160e01b815230600482015290516001600160a01b038316916370a08231916024808301926020929190829003018186803b15801561161d57600080fd5b505afa158015611631573d6000803e3d6000fd5b505050506040513d602081101561164757600080fd5b5050600354604080516001600160a01b039283168152918316602083015280517f906ff2422a6ffa134f2d7ccaffd446bc0c583a5cb6615749b4b2836942a5fea89281900390910190a16003805473ffffffffffffffffffffffffffffffffffffffff19166001600160a01b0392909216919091179055565b6116c861178e565b6001600160a01b03166116d9610e69565b6001600160a01b031614611734576040805162461bcd60e51b815260206004820181905260248201527f4f776e61626c653a2063616c6c6572206973206e6f7420746865206f776e6572604482015290519081900360640190fd5b60008111611789576040805162461bcd60e51b815260206004820152601360248201527f496e76616c6964206c696d69742076616c756500000000000000000000000000604482015290519081900360640190fd5b600555565b3390565b600082820183811015611291576040805162461bcd60e51b815260206004820152601b60248201527f536166654d6174683a206164646974696f6e206f766572666c6f770000000000604482015290519081900360640190fd5b600354604080516370a0823160e01b8152306004820152905160009283926001600160a01b03909116916370a0823191602480820192602092909190829003018186803b15801561183c57600080fd5b505afa158015611850573d6000803e3d6000fd5b505050506040513d602081101561186657600080fd5b5051905082811061189157600354611888906001600160a01b031685856119e9565b82915050610cae565b80156118ae576003546118ae906001600160a01b031685836119e9565b604080518481526020810183905281516001600160a01b038716927f733489add70a648b7a710c0e3ad87a40136e5d93e2912e532994967347c888ce928290030190a29392505050565b60008282111561194f576040805162461bcd60e51b815260206004820152601e60248201527f536166654d6174683a207375627472616374696f6e206f766572666c6f770000604482015290519081900360640190fd5b50900390565b60006112918383611a6e565b60006112918383611ab8565b60008261197c57506000610cae565b8282028284828161198957fe5b04146112915760405162461bcd60e51b8152600401808060200182810382526021815260200180611f606021913960400191505060405180910390fd5b60006112918383611b1c565b60006112918383611b34565b6000610cae82611bfa565b604080516001600160a01b038416602482015260448082018490528251808303909101815260649091019091526020810180517bffffffffffffffffffffffffffffffffffffffffffffffffffffffff167fa9059cbb00000000000000000000000000000000000000000000000000000000179052611a69908490611bfe565b505050565b6000611a7a8383611b1c565b611ab057508154600181810184556000848152602080822090930184905584548482528286019093526040902091909155610cae565b506000610cae565b81546000908210611afa5760405162461bcd60e51b8152600401808060200182810382526022815260200180611ecd6022913960400191505060405180910390fd5b826000018281548110611b0957fe5b9060005260206000200154905092915050565b60009081526001919091016020526040902054151590565b60008181526001830160205260408120548015611bf05783546000198083019190810190600090879083908110611b6757fe5b9060005260206000200154905080876000018481548110611b8457fe5b600091825260208083209091019290925582815260018981019092526040902090840190558654879080611bb457fe5b60019003818190600052602060002001600090559055866001016000878152602001908152602001600020600090556001945050505050610cae565b6000915050610cae565b5490565b6060611c53826040518060400160405280602081526020017f5361666545524332303a206c6f772d6c6576656c2063616c6c206661696c6564815250856001600160a01b0316611caf9092919063ffffffff16565b805190915015611a6957808060200190516020811015611c7257600080fd5b5051611a695760405162461bcd60e51b815260040180806020018281038252602a815260200180612010602a913960400191505060405180910390fd5b6060611cbe8484600085611cc6565b949350505050565b606082471015611d075760405162461bcd60e51b8152600401808060200182810382526026815260200180611f3a6026913960400191505060405180910390fd5b611d1085611e22565b611d61576040805162461bcd60e51b815260206004820152601d60248201527f416464726573733a2063616c6c20746f206e6f6e2d636f6e7472616374000000604482015290519081900360640190fd5b60006060866001600160a01b031685876040518082805190602001908083835b60208310611da05780518252601f199092019160209182019101611d81565b6001836020036101000a03801982511681845116808217855250505050505090500191505060006040518083038185875af1925050503d8060008114611e02576040519150601f19603f3d011682016040523d82523d6000602084013e611e07565b606091505b5091509150611e17828286611e28565b979650505050505050565b3b151590565b60608315611e37575081611291565b825115611e475782518084602001fd5b8160405162461bcd60e51b81526004018080602001828103825283818151815260200191508051906020019080838360005b83811015611e91578181015183820152602001611e79565b50505050905090810190601f168015611ebe5780820380516001836020036101000a031916815260200191505b509250505060405180910390fdfe456e756d657261626c655365743a20696e646578206f7574206f6620626f756e6473456e6420626c6f636b206d7573742062652061667465722063757272656e7420626c6f636b4f776e61626c653a206e6577206f776e657220697320746865207a65726f2061646472657373416464726573733a20696e73756666696369656e742062616c616e636520666f722063616c6c536166654d6174683a206d756c7469706c69636174696f6e206f766572666c6f77537461727420626c6f636b206d757374206265206265666f726520656e6420626c6f636b4e6f7420617070726f7665206e667420746f207374616b65722061646472657373537461727420626c6f636b206d7573742062652061667465722063757272656e7420626c6f636b456e6420626c6f636b206d75737420626520616674657220737461727420626c6f636b5361666545524332303a204552433230206f7065726174696f6e20646964206e6f742073756363656564a264697066735822122092bd444db322acd1de6289c841fea96b87aca50a4e567f88f82137cf060560f364736f6c634300060c0033537461727420626c6f636b206d757374206265206265666f726520656e6420626c6f636b537461727420626c6f636b206d7573742062652061667465722063757272656e7420626c6f636b",
  "immutableReferences": {},
  "source": "\npragma solidity 0.6.12;\nimport '@openzeppelin/contracts/access/Ownable.sol';\nimport '@openzeppelin/contracts/utils/Pausable.sol';\nimport '@openzeppelin/contracts/token/ERC20/SafeERC20.sol';\nimport \"@openzeppelin/contracts/utils/ReentrancyGuard.sol\";\nimport \"@openzeppelin/contracts/utils/EnumerableSet.sol\";\nimport '@openzeppelin/contracts/token/ERC721/IERC721Receiver.sol';\nimport '@openzeppelin/contracts/token/ERC721/IERC721.sol';\ncontract GuitarNftStaking is Ownable,ReentrancyGuard, Pausable, IERC721Receiver {\n    using SafeMath for uint256;\n    using EnumerableSet for EnumerableSet.UintSet;\n    using SafeERC20 for IERC20;\n\n    /** Staking NFT address */\n    address public _stakeNftAddress;\n    /** Reward Token address */\n    address public _rewardTokenAddress;\n    /** Reward per block */\n    uint256 public _rewardPerBlock = 1 ether;\n    /** Max NFTs that a user can stake */\n    uint256 public _maxNftsPerUser = 1;\n    /** Staking start & end block */\n    uint256 public _startBlock;\n    uint256 public _endBlock;\n\n    struct UserInfo {\n        EnumerableSet.UintSet stakedNfts;\n        uint256 rewards;\n        uint256 lastRewardBlock;\n    }\n\n    // Info of each user that stakes LP tokens.\n    mapping(address => UserInfo) private _userInfo;\n\n    event RewardTokenUpdated(address oldToken, address newToken);\n    event RewardPerBlockUpdated(uint256 oldValue, uint256 newValue);\n    event Staked(address indexed account, uint256 tokenId);\n    event Withdrawn(address indexed account, uint256 tokenId);\n    event Harvested(address indexed account, uint256 amount);\n    event InsufficientRewardToken(\n        address indexed account,\n        uint256 amountNeeded,\n        uint256 balance\n    );\n\n    constructor(\n        address __stakeNftAddress,\n        address __rewardTokenAddress,\n        uint256 __startBlock,\n        uint256 __endBlock,\n        uint256 __rewardPerBlock\n    ) public {\n        IERC20(__rewardTokenAddress).balanceOf(address(this));\n        IERC721(__stakeNftAddress).balanceOf(address(this));\n        require(__rewardPerBlock > 0, \"Invalid reward per block\");\n        require(\n            __startBlock <= __endBlock,\n            \"Start block must be before end block\"\n        );\n        require(\n            __startBlock > block.number,\n            \"Start block must be after current block\"\n        );\n\n        _stakeNftAddress = __stakeNftAddress;\n        _rewardTokenAddress = __rewardTokenAddress;\n        _rewardPerBlock = __rewardPerBlock;\n        _startBlock = __startBlock;\n        _endBlock = __endBlock;\n    }\n\n    function viewUserInfo(address __account)\n        external\n        view\n        returns (\n            uint256[] memory stakedNfts,\n            uint256 rewards,\n            uint256 lastRewardBlock\n        )\n    {\n        UserInfo storage user = _userInfo[__account];\n        rewards = user.rewards;\n        lastRewardBlock = user.lastRewardBlock;\n        uint256 countNfts = user.stakedNfts.length();\n        if (countNfts == 0) {\n            // Return an empty array\n            stakedNfts = new uint256[](0);\n        } else {\n            stakedNfts = new uint256[](countNfts);\n            uint256 index;\n            for (index = 0; index < countNfts; index++) {\n                stakedNfts[index] = tokenOfOwnerByIndex(__account, index);\n            }\n        }\n    }\n\n    function tokenOfOwnerByIndex(address __account, uint256 __index)\n        public\n        view\n        returns (uint256)\n    {\n        UserInfo storage user = _userInfo[__account];\n        return user.stakedNfts.at(__index);\n    }\n\n    function userStakedNFTCount(address __account)\n        public\n        view\n        returns (uint256)\n    {\n        UserInfo storage user = _userInfo[__account];\n        return user.stakedNfts.length();\n    }\n\n    function updateMaxNftsPerUser(uint256 __maxLimit) external onlyOwner {\n        require(__maxLimit > 0, \"Invalid limit value\");\n        _maxNftsPerUser = __maxLimit;\n    }\n\n    function updateRewardTokenAddress(address __rewardTokenAddress)\n        external\n        onlyOwner\n    {\n        require(_startBlock > block.number, \"Staking started already\");\n        IERC20(__rewardTokenAddress).balanceOf(address(this));\n        emit RewardTokenUpdated(_rewardTokenAddress, __rewardTokenAddress);\n        _rewardTokenAddress = __rewardTokenAddress;\n    }\n\n    function updateRewardPerBlock(uint256 __rewardPerBlock) external onlyOwner {\n        require(__rewardPerBlock > 0, \"Invalid reward per block\");\n        emit RewardPerBlockUpdated(_rewardPerBlock, __rewardPerBlock);\n        _rewardPerBlock = __rewardPerBlock;\n    }\n\n    function updateStartBlock(uint256 __startBlock) external onlyOwner {\n        require(\n            __startBlock <= _endBlock,\n            \"Start block must be before end block\"\n        );\n        require(__startBlock > block.number, \"Start block must be after current block\");\n        require(_startBlock > block.number, \"Staking started already\");\n        _startBlock = __startBlock;\n    }\n\n    function updateEndBlock(uint256 __endBlock) external onlyOwner {\n        require(\n            __endBlock >= _startBlock,\n            \"End block must be after start block\"\n        );\n        require(\n            __endBlock > block.number,\n            \"End block must be after current block\"\n        );\n        _endBlock = __endBlock;\n    }\n\n    function isStaked(address __account, uint256 __tokenId)\n        public\n        view\n        returns (bool)\n    {\n        UserInfo storage user = _userInfo[__account];\n        return user.stakedNfts.contains(__tokenId);\n    }\n\n    function pendingRewards(address __account) public view returns (uint256) {\n        UserInfo storage user = _userInfo[__account];\n\n        uint256 fromBlock = user.lastRewardBlock < _startBlock ? _startBlock : user.lastRewardBlock;\n        uint256 toBlock = block.number < _endBlock ? block.number : _endBlock;\n        if (toBlock < fromBlock) {\n            return user.rewards;\n        }\n\n        uint256 amount = toBlock\n            .sub(fromBlock)\n            .mul(userStakedNFTCount(__account))\n            .mul(_rewardPerBlock);\n\n        return user.rewards.add(amount);\n    }\n\n\n    function stake(uint256[] memory tokenIdList)\n        external\n        nonReentrant\n        whenNotPaused\n    {\n        require(\n            IERC721(_stakeNftAddress).isApprovedForAll(\n                _msgSender(),\n                address(this)\n            ),\n            \"Not approve nft to staker address\"\n        );\n        require(\n            userStakedNFTCount(_msgSender()).add(tokenIdList.length) <=\n                _maxNftsPerUser,\n            \"Exceeds the max limit per user\"\n        );\n\n        UserInfo storage user = _userInfo[_msgSender()];\n        uint256 pendingAmount = pendingRewards(_msgSender());\n        if (pendingAmount > 0) {\n            uint256 amountSent = safeRewardTransfer(\n                _msgSender(),\n                pendingAmount\n            );\n            user.rewards = pendingAmount.sub(amountSent);\n            emit Harvested(_msgSender(), amountSent);\n        }\n\n        for (uint256 i = 0; i < tokenIdList.length; i++) {\n            IERC721(_stakeNftAddress).safeTransferFrom(\n                _msgSender(),\n                address(this),\n                tokenIdList[i]\n            );\n\n            user.stakedNfts.add(tokenIdList[i]);\n\n            emit Staked(_msgSender(), tokenIdList[i]);\n        }\n        user.lastRewardBlock = block.number;\n    }\n\n    function withdraw(uint256[] memory tokenIdList) external nonReentrant {\n        UserInfo storage user = _userInfo[_msgSender()];\n        uint256 pendingAmount = pendingRewards(_msgSender());\n        if (pendingAmount > 0) {\n            uint256 amountSent = safeRewardTransfer(\n                _msgSender(),\n                pendingAmount\n            );\n            user.rewards = pendingAmount.sub(amountSent);\n            emit Harvested(_msgSender(), amountSent);\n        }\n\n        for (uint256 i = 0; i < tokenIdList.length; i++) {\n            require(tokenIdList[i] > 0, \"Invaild token id\");\n\n            require(\n                isStaked(_msgSender(), tokenIdList[i]),\n                \"Not staked this nft\"\n            );\n\n            IERC721(_stakeNftAddress).safeTransferFrom(\n                address(this),\n                _msgSender(),\n                tokenIdList[i]\n            );\n\n            user.stakedNfts.remove(tokenIdList[i]);\n\n            emit Withdrawn(_msgSender(), tokenIdList[i]);\n        }\n        user.lastRewardBlock = block.number;\n    }\n\n    function safeRewardTransfer(address __to, uint256 __amount)\n        internal\n        returns (uint256)\n    {\n        uint256 balance = IERC20(_rewardTokenAddress).balanceOf(address(this));\n        if (balance >= __amount) {\n            IERC20(_rewardTokenAddress).safeTransfer(__to, __amount);\n            return __amount;\n        }\n\n        if (balance > 0) {\n            IERC20(_rewardTokenAddress).safeTransfer(__to, balance);\n        }\n        emit InsufficientRewardToken(__to, __amount, balance);\n        return balance;\n    }\n\n    function onERC721Received(\n        address,\n        address,\n        uint256,\n        bytes memory\n    ) public virtual override returns (bytes4) {\n        return this.onERC721Received.selector;\n    }\n}\n",
  "sourcePath": "G:\\Blockchain\\Ethereum\\GuitarSwap\\Work\\PancakeSwap\\Work\\guitar-contracts\\contracts\\nft-staking\\GuitarNftStaking.sol",
  "compiler": {
    "name": "solc",
    "version": "0.6.12+commit.27d51765.Emscripten.clang"
  },
  "schemaVersion": "3.4.5",
  "updatedAt": "2022-03-17T16:25:05.137Z",
  "devdoc": {
    "kind": "dev",
    "methods": {
      "owner()": {
        "details": "Returns the address of the current owner."
      },
      "paused()": {
        "details": "Returns true if the contract is paused, and false otherwise."
      },
      "renounceOwnership()": {
        "details": "Leaves the contract without owner. It will not be possible to call `onlyOwner` functions anymore. Can only be called by the current owner. NOTE: Renouncing ownership will leave the contract without an owner, thereby removing any functionality that is only available to the owner."
      },
      "transferOwnership(address)": {
        "details": "Transfers ownership of the contract to a new account (`newOwner`). Can only be called by the current owner."
      }
    },
    "version": 1
  },
  "userdoc": {
    "kind": "user",
    "methods": {
      "_maxNftsPerUser()": {
        "notice": "Max NFTs that a user can stake "
      },
      "_rewardPerBlock()": {
        "notice": "Reward per block "
      },
      "_rewardTokenAddress()": {
        "notice": "Reward Token address "
      },
      "_stakeNftAddress()": {
        "notice": "Staking NFT address "
      },
      "_startBlock()": {
        "notice": "Staking start & end block "
      }
    },
    "version": 1
  }
}