{
  "contractName": "GuitarMasterChef",
  "abi": [
    {
      "inputs": [
        {
          "internalType": "contract GuitarToken",
          "name": "_guitar",
          "type": "address"
        },
        {
          "internalType": "contract GuitarSyrupBar",
          "name": "_syrup",
          "type": "address"
        },
        {
          "internalType": "address",
          "name": "_devaddr",
          "type": "address"
        },
        {
          "internalType": "address",
          "name": "_feeAddress",
          "type": "address"
        },
        {
          "internalType": "uint256",
          "name": "_guitarPerBlock",
          "type": "uint256"
        },
        {
          "internalType": "uint256",
          "name": "_startBlock",
          "type": "uint256"
        }
      ],
      "stateMutability": "nonpayable",
      "type": "constructor"
    },
    {
      "anonymous": false,
      "inputs": [
        {
          "indexed": true,
          "internalType": "address",
          "name": "user",
          "type": "address"
        },
        {
          "indexed": true,
          "internalType": "uint256",
          "name": "pid",
          "type": "uint256"
        },
        {
          "indexed": false,
          "internalType": "uint256",
          "name": "amount",
          "type": "uint256"
        }
      ],
      "name": "Deposit",
      "type": "event"
    },
    {
      "anonymous": false,
      "inputs": [
        {
          "indexed": true,
          "internalType": "address",
          "name": "user",
          "type": "address"
        },
        {
          "indexed": true,
          "internalType": "uint256",
          "name": "pid",
          "type": "uint256"
        },
        {
          "indexed": false,
          "internalType": "uint256",
          "name": "amount",
          "type": "uint256"
        }
      ],
      "name": "EmergencyWithdraw",
      "type": "event"
    },
    {
      "anonymous": false,
      "inputs": [
        {
          "indexed": true,
          "internalType": "address",
          "name": "previousOwner",
          "type": "address"
        },
        {
          "indexed": true,
          "internalType": "address",
          "name": "newOwner",
          "type": "address"
        }
      ],
      "name": "OwnershipTransferred",
      "type": "event"
    },
    {
      "anonymous": false,
      "inputs": [
        {
          "indexed": true,
          "internalType": "address",
          "name": "user",
          "type": "address"
        },
        {
          "indexed": true,
          "internalType": "address",
          "name": "newAddress",
          "type": "address"
        }
      ],
      "name": "SetDevAddress",
      "type": "event"
    },
    {
      "anonymous": false,
      "inputs": [
        {
          "indexed": true,
          "internalType": "address",
          "name": "user",
          "type": "address"
        },
        {
          "indexed": true,
          "internalType": "address",
          "name": "newAddress",
          "type": "address"
        }
      ],
      "name": "SetFeeAddress",
      "type": "event"
    },
    {
      "anonymous": false,
      "inputs": [
        {
          "indexed": true,
          "internalType": "address",
          "name": "user",
          "type": "address"
        },
        {
          "indexed": false,
          "internalType": "uint256",
          "name": "guitarPerBlock",
          "type": "uint256"
        }
      ],
      "name": "UpdateEmissionRate",
      "type": "event"
    },
    {
      "anonymous": false,
      "inputs": [
        {
          "indexed": true,
          "internalType": "address",
          "name": "user",
          "type": "address"
        },
        {
          "indexed": true,
          "internalType": "uint256",
          "name": "pid",
          "type": "uint256"
        },
        {
          "indexed": false,
          "internalType": "uint256",
          "name": "amount",
          "type": "uint256"
        }
      ],
      "name": "Withdraw",
      "type": "event"
    },
    {
      "inputs": [],
      "name": "BONUS_MULTIPLIER",
      "outputs": [
        {
          "internalType": "uint256",
          "name": "",
          "type": "uint256"
        }
      ],
      "stateMutability": "view",
      "type": "function"
    },
    {
      "inputs": [],
      "name": "MAXIMUM_EMISSON_RATE",
      "outputs": [
        {
          "internalType": "uint256",
          "name": "",
          "type": "uint256"
        }
      ],
      "stateMutability": "view",
      "type": "function"
    },
    {
      "inputs": [],
      "name": "MAX_DEPOSIT_FEE",
      "outputs": [
        {
          "internalType": "uint16",
          "name": "",
          "type": "uint16"
        }
      ],
      "stateMutability": "view",
      "type": "function"
    },
    {
      "inputs": [],
      "name": "devaddr",
      "outputs": [
        {
          "internalType": "address",
          "name": "",
          "type": "address"
        }
      ],
      "stateMutability": "view",
      "type": "function"
    },
    {
      "inputs": [],
      "name": "feeAddress",
      "outputs": [
        {
          "internalType": "address",
          "name": "",
          "type": "address"
        }
      ],
      "stateMutability": "view",
      "type": "function"
    },
    {
      "inputs": [],
      "name": "guitar",
      "outputs": [
        {
          "internalType": "contract GuitarToken",
          "name": "",
          "type": "address"
        }
      ],
      "stateMutability": "view",
      "type": "function"
    },
    {
      "inputs": [],
      "name": "guitarPerBlock",
      "outputs": [
        {
          "internalType": "uint256",
          "name": "",
          "type": "uint256"
        }
      ],
      "stateMutability": "view",
      "type": "function"
    },
    {
      "inputs": [],
      "name": "migrator",
      "outputs": [
        {
          "internalType": "contract IMigratorChef",
          "name": "",
          "type": "address"
        }
      ],
      "stateMutability": "view",
      "type": "function"
    },
    {
      "inputs": [],
      "name": "owner",
      "outputs": [
        {
          "internalType": "address",
          "name": "",
          "type": "address"
        }
      ],
      "stateMutability": "view",
      "type": "function"
    },
    {
      "inputs": [
        {
          "internalType": "contract IBEP20",
          "name": "",
          "type": "address"
        }
      ],
      "name": "poolExistence",
      "outputs": [
        {
          "internalType": "bool",
          "name": "",
          "type": "bool"
        }
      ],
      "stateMutability": "view",
      "type": "function"
    },
    {
      "inputs": [
        {
          "internalType": "uint256",
          "name": "",
          "type": "uint256"
        }
      ],
      "name": "poolInfo",
      "outputs": [
        {
          "internalType": "contract IBEP20",
          "name": "lpToken",
          "type": "address"
        },
        {
          "internalType": "uint256",
          "name": "lpSupply",
          "type": "uint256"
        },
        {
          "internalType": "uint256",
          "name": "allocPoint",
          "type": "uint256"
        },
        {
          "internalType": "uint256",
          "name": "lastRewardBlock",
          "type": "uint256"
        },
        {
          "internalType": "uint256",
          "name": "accGuitarPerShare",
          "type": "uint256"
        },
        {
          "internalType": "uint16",
          "name": "depositFeeBP",
          "type": "uint16"
        }
      ],
      "stateMutability": "view",
      "type": "function"
    },
    {
      "inputs": [],
      "name": "renounceOwnership",
      "outputs": [],
      "stateMutability": "nonpayable",
      "type": "function"
    },
    {
      "inputs": [],
      "name": "startBlock",
      "outputs": [
        {
          "internalType": "uint256",
          "name": "",
          "type": "uint256"
        }
      ],
      "stateMutability": "view",
      "type": "function"
    },
    {
      "inputs": [],
      "name": "syrup",
      "outputs": [
        {
          "internalType": "contract GuitarSyrupBar",
          "name": "",
          "type": "address"
        }
      ],
      "stateMutability": "view",
      "type": "function"
    },
    {
      "inputs": [],
      "name": "totalAllocPoint",
      "outputs": [
        {
          "internalType": "uint256",
          "name": "",
          "type": "uint256"
        }
      ],
      "stateMutability": "view",
      "type": "function"
    },
    {
      "inputs": [
        {
          "internalType": "address",
          "name": "newOwner",
          "type": "address"
        }
      ],
      "name": "transferOwnership",
      "outputs": [],
      "stateMutability": "nonpayable",
      "type": "function"
    },
    {
      "inputs": [
        {
          "internalType": "uint256",
          "name": "",
          "type": "uint256"
        },
        {
          "internalType": "address",
          "name": "",
          "type": "address"
        }
      ],
      "name": "userInfo",
      "outputs": [
        {
          "internalType": "uint256",
          "name": "amount",
          "type": "uint256"
        },
        {
          "internalType": "uint256",
          "name": "rewardDebt",
          "type": "uint256"
        }
      ],
      "stateMutability": "view",
      "type": "function"
    },
    {
      "inputs": [
        {
          "internalType": "uint256",
          "name": "multiplierNumber",
          "type": "uint256"
        }
      ],
      "name": "updateMultiplier",
      "outputs": [],
      "stateMutability": "nonpayable",
      "type": "function"
    },
    {
      "inputs": [],
      "name": "poolLength",
      "outputs": [
        {
          "internalType": "uint256",
          "name": "",
          "type": "uint256"
        }
      ],
      "stateMutability": "view",
      "type": "function"
    },
    {
      "inputs": [
        {
          "internalType": "uint256",
          "name": "_allocPoint",
          "type": "uint256"
        },
        {
          "internalType": "contract IBEP20",
          "name": "_lpToken",
          "type": "address"
        },
        {
          "internalType": "uint16",
          "name": "_depositFeeBP",
          "type": "uint16"
        },
        {
          "internalType": "bool",
          "name": "_withUpdate",
          "type": "bool"
        }
      ],
      "name": "add",
      "outputs": [],
      "stateMutability": "nonpayable",
      "type": "function"
    },
    {
      "inputs": [
        {
          "internalType": "uint256",
          "name": "_pid",
          "type": "uint256"
        },
        {
          "internalType": "uint256",
          "name": "_allocPoint",
          "type": "uint256"
        },
        {
          "internalType": "uint16",
          "name": "_depositFeeBP",
          "type": "uint16"
        },
        {
          "internalType": "bool",
          "name": "_withUpdate",
          "type": "bool"
        }
      ],
      "name": "set",
      "outputs": [],
      "stateMutability": "nonpayable",
      "type": "function"
    },
    {
      "inputs": [
        {
          "internalType": "contract IMigratorChef",
          "name": "_migrator",
          "type": "address"
        }
      ],
      "name": "setMigrator",
      "outputs": [],
      "stateMutability": "nonpayable",
      "type": "function"
    },
    {
      "inputs": [
        {
          "internalType": "uint256",
          "name": "_pid",
          "type": "uint256"
        }
      ],
      "name": "migrate",
      "outputs": [],
      "stateMutability": "nonpayable",
      "type": "function"
    },
    {
      "inputs": [
        {
          "internalType": "uint256",
          "name": "_from",
          "type": "uint256"
        },
        {
          "internalType": "uint256",
          "name": "_to",
          "type": "uint256"
        }
      ],
      "name": "getMultiplier",
      "outputs": [
        {
          "internalType": "uint256",
          "name": "",
          "type": "uint256"
        }
      ],
      "stateMutability": "view",
      "type": "function"
    },
    {
      "inputs": [
        {
          "internalType": "uint256",
          "name": "_pid",
          "type": "uint256"
        },
        {
          "internalType": "address",
          "name": "_user",
          "type": "address"
        }
      ],
      "name": "pendingGuitar",
      "outputs": [
        {
          "internalType": "uint256",
          "name": "",
          "type": "uint256"
        }
      ],
      "stateMutability": "view",
      "type": "function"
    },
    {
      "inputs": [],
      "name": "massUpdatePools",
      "outputs": [],
      "stateMutability": "nonpayable",
      "type": "function"
    },
    {
      "inputs": [
        {
          "internalType": "uint256",
          "name": "_pid",
          "type": "uint256"
        }
      ],
      "name": "updatePool",
      "outputs": [],
      "stateMutability": "nonpayable",
      "type": "function"
    },
    {
      "inputs": [
        {
          "internalType": "uint256",
          "name": "_pid",
          "type": "uint256"
        },
        {
          "internalType": "uint256",
          "name": "_amount",
          "type": "uint256"
        }
      ],
      "name": "deposit",
      "outputs": [],
      "stateMutability": "nonpayable",
      "type": "function"
    },
    {
      "inputs": [
        {
          "internalType": "uint256",
          "name": "_pid",
          "type": "uint256"
        },
        {
          "internalType": "uint256",
          "name": "_amount",
          "type": "uint256"
        }
      ],
      "name": "withdraw",
      "outputs": [],
      "stateMutability": "nonpayable",
      "type": "function"
    },
    {
      "inputs": [
        {
          "internalType": "uint256",
          "name": "_amount",
          "type": "uint256"
        }
      ],
      "name": "enterStaking",
      "outputs": [],
      "stateMutability": "nonpayable",
      "type": "function"
    },
    {
      "inputs": [
        {
          "internalType": "uint256",
          "name": "_amount",
          "type": "uint256"
        }
      ],
      "name": "leaveStaking",
      "outputs": [],
      "stateMutability": "nonpayable",
      "type": "function"
    },
    {
      "inputs": [
        {
          "internalType": "uint256",
          "name": "_pid",
          "type": "uint256"
        }
      ],
      "name": "emergencyWithdraw",
      "outputs": [],
      "stateMutability": "nonpayable",
      "type": "function"
    },
    {
      "inputs": [
        {
          "internalType": "address",
          "name": "_devaddr",
          "type": "address"
        }
      ],
      "name": "dev",
      "outputs": [],
      "stateMutability": "nonpayable",
      "type": "function"
    },
    {
      "inputs": [
        {
          "internalType": "address",
          "name": "_feeAddress",
          "type": "address"
        }
      ],
      "name": "setFeeAddress",
      "outputs": [],
      "stateMutability": "nonpayable",
      "type": "function"
    },
    {
      "inputs": [
        {
          "internalType": "uint256",
          "name": "_guitarPerBlock",
          "type": "uint256"
        }
      ],
      "name": "updateEmissionRate",
      "outputs": [],
      "stateMutability": "nonpayable",
      "type": "function"
    }
  ],
  "bytecode": "0x608060405260016006556000600a5534801561001a57600080fd5b5060405162002dff38038062002dff833981810160405260c081101561003f57600080fd5b508051602082015160408301516060840151608085015160a0909501519394929391929091600061006e610263565b600080546001600160a01b0319166001600160a01b0383169081178255604051929350917f8be0079c531659141344cd1fd0a4f28419497f9722a3daafe3b4186f6b6457e0908290a350600180546001600160a01b03199081166001600160a01b039889169081178355600280548316988a16989098179097556003805482169689169690961790955560048054861694881694909417909355600591909155600b8190556040805160c0810182529485526000602086018181526103e8928701838152606088019485526080880183815260a0890184815260088054988901815590945297517ff3f7a9fe364faab93b216da50a3214154f22a0a2b415b23a84c8169e8b636ee36006909702968701805490981699169890981790955593517ff3f7a9fe364faab93b216da50a3214154f22a0a2b415b23a84c8169e8b636ee484015594517ff3f7a9fe364faab93b216da50a3214154f22a0a2b415b23a84c8169e8b636ee5830155517ff3f7a9fe364faab93b216da50a3214154f22a0a2b415b23a84c8169e8b636ee682015591517ff3f7a9fe364faab93b216da50a3214154f22a0a2b415b23a84c8169e8b636ee7830155517ff3f7a9fe364faab93b216da50a3214154f22a0a2b415b23a84c8169e8b636ee8909101805461ffff191661ffff909216919091179055600a55610267565b3390565b612b8880620002776000396000f3fe608060405234801561001057600080fd5b50600436106102415760003560e01c80637d6a3efd11610145578063b8e2faf5116100bd578063d49e77cd1161008c578063e2bbb15811610071578063e2bbb158146105fc578063e69f07d01461061f578063f2fde38b1461062757610241565b8063d49e77cd146105bf578063d9638422146105c757610241565b8063b8e2faf514610532578063c6d87dd51461055e578063c85acf8f1461057d578063cbd258b51461058557610241565b80638aa28550116101145780638da5cb5b116100f95780638da5cb5b146104c25780638dbb1e3a146104ca57806393f1a40b146104ed57610241565b80638aa28550146104945780638d88a90e1461049c57610241565b80637d6a3efd1461042057806384e82a331461042857806386a952c4146104665780638705fcd41461046e57610241565b8063441a3e70116101d85780635312ea8e116101a7578063630b5ba11161018c578063630b5ba114610408578063715018a6146104105780637cd07e471461041857610241565b80635312ea8e146103ce5780635ffe6146146103eb57610241565b8063441a3e7014610369578063454b06081461038c57806348cd4cb1146103a957806351eb05a6146103b157610241565b806317caf6f11161021457806317caf6f1146102fa57806323cf311814610302578063412753581461032857806341441d3b1461034c57610241565b8063081e3eda146102465780630ba84cd2146102605780631058d2811461027f5780631526fe271461029c575b600080fd5b61024e61064d565b60408051918252519081900360200190f35b61027d6004803603602081101561027657600080fd5b5035610653565b005b61027d6004803603602081101561029557600080fd5b503561076c565b6102b9600480360360208110156102b257600080fd5b50356109b5565b604080516001600160a01b0390971687526020870195909552858501939093526060850191909152608084015261ffff1660a0830152519081900360c00190f35b61024e610a06565b61027d6004803603602081101561031857600080fd5b50356001600160a01b0316610a0c565b610330610aa2565b604080516001600160a01b039092168252519081900360200190f35b61027d6004803603602081101561036257600080fd5b5035610ab1565b61027d6004803603604081101561037f57600080fd5b5080359060200135610dcf565b61027d600480360360208110156103a257600080fd5b5035610fc0565b61024e611254565b61027d600480360360208110156103c757600080fd5b503561125a565b61027d600480360360208110156103e457600080fd5b5035611430565b61027d6004803603602081101561040157600080fd5b50356114e0565b61027d611559565b61027d61157c565b61033061163a565b610330611649565b61027d6004803603608081101561043e57600080fd5b508035906001600160a01b036020820135169061ffff60408201351690606001351515611658565b6103306119ad565b61027d6004803603602081101561048457600080fd5b50356001600160a01b03166119bc565b61024e611a67565b61027d600480360360208110156104b257600080fd5b50356001600160a01b0316611a6d565b610330611b18565b61024e600480360360408110156104e057600080fd5b5080359060200135611b27565b6105196004803603604081101561050357600080fd5b50803590602001356001600160a01b0316611b44565b6040805192835260208301919091528051918290030190f35b61024e6004803603604081101561054857600080fd5b50803590602001356001600160a01b0316611b68565b610566611c74565b6040805161ffff9092168252519081900360200190f35b61024e611c7a565b6105ab6004803603602081101561059b57600080fd5b50356001600160a01b0316611c80565b604080519115158252519081900360200190f35b610330611c95565b61027d600480360360808110156105dd57600080fd5b5080359060208101359061ffff60408201351690606001351515611ca4565b61027d6004803603604081101561061257600080fd5b5080359060200135611e21565b61024e6120c4565b61027d6004803603602081101561063d57600080fd5b50356001600160a01b03166120d2565b60085490565b61065b6121e6565b6001600160a01b031661066c611b18565b6001600160a01b0316146106c7576040805162461bcd60e51b815260206004820181905260248201527f4f776e61626c653a2063616c6c6572206973206e6f7420746865206f776e6572604482015290519081900360640190fd5b69d3c21bcecceda1000000811115610726576040805162461bcd60e51b815260206004820152600860248201527f546f6f2068696768000000000000000000000000000000000000000000000000604482015290519081900360640190fd5b61072e611559565b600581905560408051828152905133917fe2492e003bbe8afa53088b406f0c1cb5d9e280370fc72a74cf116ffd343c4053919081900360200190a250565b6000600860008154811061077c57fe5b600091825260208083203384527fec8156718a8372b1db44bb411437d0870f3e3790d4a08526d024ce1b0b668f6b90915260409092208054600690920290920192508311156107fc5760405162461bcd60e51b815260040180806020018281038252602b815260200180612b28602b913960400191505060405180910390fd5b828260010154101561083f5760405162461bcd60e51b815260040180806020018281038252602b815260200180612afd602b913960400191505060405180910390fd5b610849600061125a565b6000610883826001015461087d64e8d4a51000610877876004015487600001546121ea90919063ffffffff16565b90612243565b906122aa565b90508015610895576108953382612307565b83156108d35781546108a790856122aa565b825560018301546108b890856122aa565b600184015582546108d3906001600160a01b03163386612389565b600483015482546108ee9164e8d4a5100091610877916121ea565b6001830155600254604080517f9dc29fac0000000000000000000000000000000000000000000000000000000081523360048201526024810187905290516001600160a01b0390921691639dc29fac9160448082019260009290919082900301818387803b15801561095f57600080fd5b505af1158015610973573d6000803e3d6000fd5b5050604080518781529051600093503392507ff279e6a1f5e320cca91135676d9cb6e44ca8a08c0b88342bcdb1144f6511b5689181900360200190a350505050565b600881815481106109c257fe5b60009182526020909120600690910201805460018201546002830154600384015460048501546005909501546001600160a01b0390941695509193909261ffff1686565b600a5481565b610a146121e6565b6001600160a01b0316610a25611b18565b6001600160a01b031614610a80576040805162461bcd60e51b815260206004820181905260248201527f4f776e61626c653a2063616c6c6572206973206e6f7420746865206f776e6572604482015290519081900360640190fd5b600780546001600160a01b0319166001600160a01b0392909216919091179055565b6004546001600160a01b031681565b60006008600081548110610ac157fe5b600091825260208083203384527fec8156718a8372b1db44bb411437d0870f3e3790d4a08526d024ce1b0b668f6b90915260408320600690920201925090610b089061125a565b805415610b51576000610b3d826001015461087d64e8d4a51000610877876004015487600001546121ea90919063ffffffff16565b90508015610b4f57610b4f3382612307565b505b8215610cee578154604080516370a0823160e01b815230600482015290516000926001600160a01b0316916370a08231916024808301926020929190829003018186803b158015610ba157600080fd5b505afa158015610bb5573d6000803e3d6000fd5b505050506040513d6020811015610bcb57600080fd5b50518354909150610be7906001600160a01b031633308761240e565b8254604080516370a0823160e01b81523060048201529051610c699284926001600160a01b03909116916370a0823191602480820192602092909190829003018186803b158015610c3757600080fd5b505afa158015610c4b573d6000803e3d6000fd5b505050506040513d6020811015610c6157600080fd5b5051906122aa565b600584015490945060009061ffff1615610cbd576005840154610c99906127109061087790889061ffff166121ea565b90508015610cbd576004548454610cbd916001600160a01b03918216911683612389565b8254610ccf90829061087d908861249c565b83556001840154610ce690829061087d908861249c565b600185015550505b60048201548154610d099164e8d4a5100091610877916121ea565b6001820155600254604080517f40c10f190000000000000000000000000000000000000000000000000000000081523360048201526024810186905290516001600160a01b03909216916340c10f199160448082019260009290919082900301818387803b158015610d7a57600080fd5b505af1158015610d8e573d6000803e3d6000fd5b5050604080518681529051600093503392507f90890809c654f11d6e72a28fa60149770a0d11ec6c92319d6ceb2bb0a4ea1a159181900360200190a3505050565b81610e21576040805162461bcd60e51b815260206004820152601960248201527f77697468647261772047555420627920756e7374616b696e6700000000000000604482015290519081900360640190fd5b600060088381548110610e3057fe5b600091825260208083208684526009825260408085203386529092529220805460069092029092019250831115610e985760405162461bcd60e51b815260040180806020018281038252602b815260200180612b28602b913960400191505060405180910390fd5b8282600101541015610edb5760405162461bcd60e51b815260040180806020018281038252602b815260200180612afd602b913960400191505060405180910390fd5b610ee48461125a565b6000610f12826001015461087d64e8d4a51000610877876004015487600001546121ea90919063ffffffff16565b90508015610f2457610f243382612307565b8315610f62578154610f3690856122aa565b82556001830154610f4790856122aa565b60018401558254610f62906001600160a01b03163386612389565b60048301548254610f7d9164e8d4a5100091610877916121ea565b6001830155604080518581529051869133917ff279e6a1f5e320cca91135676d9cb6e44ca8a08c0b88342bcdb1144f6511b5689181900360200190a35050505050565b6007546001600160a01b031661101d576040805162461bcd60e51b815260206004820152601460248201527f6d6967726174653a206e6f206d69677261746f72000000000000000000000000604482015290519081900360640190fd5b60006008828154811061102c57fe5b6000918252602080832060069092029091018054604080516370a0823160e01b815230600482015290519295506001600160a01b03909116939284926370a08231926024808201939291829003018186803b15801561108a57600080fd5b505afa15801561109e573d6000803e3d6000fd5b505050506040513d60208110156110b457600080fd5b50516007549091506110d3906001600160a01b038481169116836124f6565b600754604080517fce5494bb0000000000000000000000000000000000000000000000000000000081526001600160a01b0385811660048301529151600093929092169163ce5494bb9160248082019260209290919082900301818787803b15801561113e57600080fd5b505af1158015611152573d6000803e3d6000fd5b505050506040513d602081101561116857600080fd5b5051604080516370a0823160e01b815230600482015290519192506001600160a01b038316916370a0823191602480820192602092909190829003018186803b1580156111b457600080fd5b505afa1580156111c8573d6000803e3d6000fd5b505050506040513d60208110156111de57600080fd5b50518214611233576040805162461bcd60e51b815260206004820152600c60248201527f6d6967726174653a206261640000000000000000000000000000000000000000604482015290519081900360640190fd5b83546001600160a01b0319166001600160a01b039190911617909255505050565b600b5481565b60006008828154811061126957fe5b906000526020600020906006020190508060030154431161128a575061142d565b6001810154158061129b5750600a54155b156112ac574360039091015561142d565b60006112bc826003015443611b27565b905060006112e9600a5461087785600201546112e3600554876121ea90919063ffffffff16565b906121ea565b6001546003549192506001600160a01b039081169163da1919b3911661131084600a612243565b6040518363ffffffff1660e01b815260040180836001600160a01b0316815260200182815260200192505050600060405180830381600087803b15801561135657600080fd5b505af115801561136a573d6000803e3d6000fd5b5050600154600254604080517fda1919b30000000000000000000000000000000000000000000000000000000081526001600160a01b03928316600482015260248101879052905191909216935063da1919b39250604480830192600092919082900301818387803b1580156113df57600080fd5b505af11580156113f3573d6000803e3d6000fd5b505050600184015461141e9150611413906108778464e8d4a510006121ea565b60048501549061249c565b60048401555050436003909101555b50565b60006008828154811061143f57fe5b60009182526020808320858452600982526040808520338652909252922080546006929092029092016001810154909350611479916122aa565b600183015580548254611499916001600160a01b03909116903390612389565b80546040805191825251849133917fbb757047c2b5f3974fe26b7c10f732e7bce710b0952a71082702781e62ae05959181900360200190a360008082556001909101555050565b6114e86121e6565b6001600160a01b03166114f9611b18565b6001600160a01b031614611554576040805162461bcd60e51b815260206004820181905260248201527f4f776e61626c653a2063616c6c6572206973206e6f7420746865206f776e6572604482015290519081900360640190fd5b600655565b60085460005b81811015611578576115708161125a565b60010161155f565b5050565b6115846121e6565b6001600160a01b0316611595611b18565b6001600160a01b0316146115f0576040805162461bcd60e51b815260206004820181905260248201527f4f776e61626c653a2063616c6c6572206973206e6f7420746865206f776e6572604482015290519081900360640190fd5b600080546040516001600160a01b03909116907f8be0079c531659141344cd1fd0a4f28419497f9722a3daafe3b4186f6b6457e0908390a3600080546001600160a01b0319169055565b6007546001600160a01b031681565b6001546001600160a01b031681565b6116606121e6565b6001600160a01b0316611671611b18565b6001600160a01b0316146116cc576040805162461bcd60e51b815260206004820181905260248201527f4f776e61626c653a2063616c6c6572206973206e6f7420746865206f776e6572604482015290519081900360640190fd5b6001600160a01b0383166000908152600c6020526040902054839060ff161561173c576040805162461bcd60e51b815260206004820152601960248201527f6e6f6e4475706c6963617465643a206475706c69636174656400000000000000604482015290519081900360640190fd5b6107d061ffff841611156117815760405162461bcd60e51b81526004018080602001828103825260258152602001806129e66025913960400191505060405180910390fd5b604080516370a0823160e01b815230600482015290516001600160a01b038616916370a08231916024808301926020929190829003018186803b1580156117c757600080fd5b505afa1580156117db573d6000803e3d6000fd5b505050506040513d60208110156117f157600080fd5b5050811561180157611801611559565b6000600b54431161181457600b54611816565b435b600a54909150611826908761249c565b600a556001600160a01b038581166000818152600c602090815260408083208054600160ff199091168117909155815160c0810183529485529184018381529084018b8152606085018781526080860185815261ffff8c811660a0890190815260088054978801815590975296517ff3f7a9fe364faab93b216da50a3214154f22a0a2b415b23a84c8169e8b636ee3600690960295860180546001600160a01b031916919099161790975591517ff3f7a9fe364faab93b216da50a3214154f22a0a2b415b23a84c8169e8b636ee4840155517ff3f7a9fe364faab93b216da50a3214154f22a0a2b415b23a84c8169e8b636ee5830155517ff3f7a9fe364faab93b216da50a3214154f22a0a2b415b23a84c8169e8b636ee682015592517ff3f7a9fe364faab93b216da50a3214154f22a0a2b415b23a84c8169e8b636ee7840155517ff3f7a9fe364faab93b216da50a3214154f22a0a2b415b23a84c8169e8b636ee8909201805461ffff1916929091169190911790556119a5612650565b505050505050565b6002546001600160a01b031681565b6004546001600160a01b03163314611a1b576040805162461bcd60e51b815260206004820152601860248201527f736574466565416464726573733a20464f5242494444454e0000000000000000604482015290519081900360640190fd5b600480546001600160a01b0319166001600160a01b03831690811790915560405133907fd44190acf9d04bdb5d3a1aafff7e6dee8b40b93dfb8c5d3f0eea4b9f4539c3f790600090a350565b60065481565b6003546001600160a01b03163314611acc576040805162461bcd60e51b815260206004820152600960248201527f6465763a207775743f0000000000000000000000000000000000000000000000604482015290519081900360640190fd5b600380546001600160a01b0319166001600160a01b03831690811790915560405133907f618c54559e94f1499a808aad71ee8729f8e74e8c48e979616328ce493a1a52e790600090a350565b6000546001600160a01b031690565b600654600090611b3b906112e384866122aa565b90505b92915050565b60096020908152600092835260408084209091529082529020805460019091015482565b60008060088481548110611b7857fe5b600091825260208083208784526009825260408085206001600160a01b03891686529092529220600460069092029092019081015460038201549193509043118015611bc75750600183015415155b8015611bd557506000600a54115b15611c42576000611bea846003015443611b27565b90506000611c11600a5461087787600201546112e3600554876121ea90919063ffffffff16565b9050611c3d611c36866001015461087764e8d4a51000856121ea90919063ffffffff16565b849061249c565b925050505b611c6a826001015461087d64e8d4a510006108778587600001546121ea90919063ffffffff16565b9695505050505050565b6107d081565b60055481565b600c6020526000908152604090205460ff1681565b6003546001600160a01b031681565b611cac6121e6565b6001600160a01b0316611cbd611b18565b6001600160a01b031614611d18576040805162461bcd60e51b815260206004820181905260248201527f4f776e61626c653a2063616c6c6572206973206e6f7420746865206f776e6572604482015290519081900360640190fd5b6107d061ffff831610611d5c5760405162461bcd60e51b8152600401808060200182810382526025815260200180612ad86025913960400191505060405180910390fd5b8015611d6a57611d6a611559565b600060088581548110611d7957fe5b90600052602060002090600602016002015490508360088681548110611d9b57fe5b9060005260206000209060060201600201819055508260088681548110611dbe57fe5b906000526020600020906006020160050160006101000a81548161ffff021916908361ffff160217905550838114611e1a57611e0f84611e0983600a546122aa90919063ffffffff16565b9061249c565b600a55611e1a612650565b5050505050565b81611e73576040805162461bcd60e51b815260206004820152601660248201527f6465706f73697420475554206279207374616b696e6700000000000000000000604482015290519081900360640190fd5b600060088381548110611e8257fe5b60009182526020808320868452600982526040808520338652909252922060069091029091019150611eb38461125a565b805415611efc576000611ee8826001015461087d64e8d4a51000610877876004015487600001546121ea90919063ffffffff16565b90508015611efa57611efa3382612307565b505b8215612067578154604080516370a0823160e01b815230600482015290516000926001600160a01b0316916370a08231916024808301926020929190829003018186803b158015611f4c57600080fd5b505afa158015611f60573d6000803e3d6000fd5b505050506040513d6020811015611f7657600080fd5b50518354909150611f92906001600160a01b031633308761240e565b8254604080516370a0823160e01b81523060048201529051611fe29284926001600160a01b03909116916370a0823191602480820192602092909190829003018186803b158015610c3757600080fd5b600584015490945060009061ffff1615612036576005840154612012906127109061087790889061ffff166121ea565b90508015612036576004548454612036916001600160a01b03918216911683612389565b825461204890829061087d908861249c565b8355600184015461205f90829061087d908861249c565b600185015550505b600482015481546120829164e8d4a5100091610877916121ea565b6001820155604080518481529051859133917f90890809c654f11d6e72a28fa60149770a0d11ec6c92319d6ceb2bb0a4ea1a159181900360200190a350505050565b69d3c21bcecceda100000081565b6120da6121e6565b6001600160a01b03166120eb611b18565b6001600160a01b031614612146576040805162461bcd60e51b815260206004820181905260248201527f4f776e61626c653a2063616c6c6572206973206e6f7420746865206f776e6572604482015290519081900360640190fd5b6001600160a01b03811661218b5760405162461bcd60e51b8152600401808060200182810382526026815260200180612a356026913960400191505060405180910390fd5b600080546040516001600160a01b03808516939216917f8be0079c531659141344cd1fd0a4f28419497f9722a3daafe3b4186f6b6457e091a3600080546001600160a01b0319166001600160a01b0392909216919091179055565b3390565b6000826121f957506000611b3e565b8282028284828161220657fe5b0414611b3b5760405162461bcd60e51b8152600401808060200182810382526021815260200180612a816021913960400191505060405180910390fd5b6000808211612299576040805162461bcd60e51b815260206004820152601a60248201527f536166654d6174683a206469766973696f6e206279207a65726f000000000000604482015290519081900360640190fd5b8183816122a257fe5b049392505050565b600082821115612301576040805162461bcd60e51b815260206004820152601e60248201527f536166654d6174683a207375627472616374696f6e206f766572666c6f770000604482015290519081900360640190fd5b50900390565b600254604080517f7c4745f30000000000000000000000000000000000000000000000000000000081526001600160a01b0385811660048301526024820185905291519190921691637c4745f391604480830192600092919082900301818387803b15801561237557600080fd5b505af11580156119a5573d6000803e3d6000fd5b604080516001600160a01b038416602482015260448082018490528251808303909101815260649091019091526020810180517bffffffffffffffffffffffffffffffffffffffffffffffffffffffff167fa9059cbb00000000000000000000000000000000000000000000000000000000179052612409908490612715565b505050565b604080516001600160a01b0380861660248301528416604482015260648082018490528251808303909101815260849091019091526020810180517bffffffffffffffffffffffffffffffffffffffffffffffffffffffff167f23b872dd00000000000000000000000000000000000000000000000000000000179052612496908590612715565b50505050565b600082820183811015611b3b576040805162461bcd60e51b815260206004820152601b60248201527f536166654d6174683a206164646974696f6e206f766572666c6f770000000000604482015290519081900360640190fd5b8015806125955750604080517fdd62ed3e0000000000000000000000000000000000000000000000000000000081523060048201526001600160a01b03848116602483015291519185169163dd62ed3e91604480820192602092909190829003018186803b15801561256757600080fd5b505afa15801561257b573d6000803e3d6000fd5b505050506040513d602081101561259157600080fd5b5051155b6125d05760405162461bcd60e51b8152600401808060200182810382526036815260200180612aa26036913960400191505060405180910390fd5b604080516001600160a01b038416602482015260448082018490528251808303909101815260649091019091526020810180517bffffffffffffffffffffffffffffffffffffffffffffffffffffffff167f095ea7b300000000000000000000000000000000000000000000000000000000179052612409908490612715565b600854600060015b8281101561269b576126916008828154811061267057fe5b9060005260206000209060060201600201548361249c90919063ffffffff16565b9150600101612658565b508015611578576126ad816003612243565b90506126e781611e0960086000815481106126c457fe5b906000526020600020906006020160020154600a546122aa90919063ffffffff16565b600a819055508060086000815481106126fc57fe5b9060005260206000209060060201600201819055505050565b606061276a826040518060400160405280602081526020017f5361666542455032303a206c6f772d6c6576656c2063616c6c206661696c6564815250856001600160a01b03166127c69092919063ffffffff16565b8051909150156124095780806020019051602081101561278957600080fd5b50516124095760405162461bcd60e51b815260040180806020018281038252602a815260200180612a0b602a913960400191505060405180910390fd5b60606127d584846000856127df565b90505b9392505050565b6060824710156128205760405162461bcd60e51b8152600401808060200182810382526026815260200180612a5b6026913960400191505060405180910390fd5b6128298561293b565b61287a576040805162461bcd60e51b815260206004820152601d60248201527f416464726573733a2063616c6c20746f206e6f6e2d636f6e7472616374000000604482015290519081900360640190fd5b60006060866001600160a01b031685876040518082805190602001908083835b602083106128b95780518252601f19909201916020918201910161289a565b6001836020036101000a03801982511681845116808217855250505050505090500191505060006040518083038185875af1925050503d806000811461291b576040519150601f19603f3d011682016040523d82523d6000602084013e612920565b606091505b5091509150612930828286612941565b979650505050505050565b3b151590565b606083156129505750816127d8565b8251156129605782518084602001fd5b8160405162461bcd60e51b81526004018080602001828103825283818151815260200191508051906020019080838360005b838110156129aa578181015183820152602001612992565b50505050905090810190601f1680156129d75780820380516001836020036101000a031916815260200191505b509250505060405180910390fdfe6164643a20696e76616c6964206465706f7369742066656520626173697320706f696e74735361666542455032303a204245503230206f7065726174696f6e20646964206e6f7420737563636565644f776e61626c653a206e6577206f776e657220697320746865207a65726f2061646472657373416464726573733a20696e73756666696369656e742062616c616e636520666f722063616c6c536166654d6174683a206d756c7469706c69636174696f6e206f766572666c6f775361666542455032303a20617070726f76652066726f6d206e6f6e2d7a65726f20746f206e6f6e2d7a65726f20616c6c6f77616e63657365743a20696e76616c6964206465706f7369742066656520626173697320706f696e747377697468647261773a206e6f7420676f6f6428706f6f6c2062616c616e6365206e6f7420656e6f7567682977697468647261773a206e6f7420676f6f6428757365722062616c616e6365206e6f7420656e6f75676829a26469706673582212205a62bbe26b915c567d7cc83913003b87411872a6146d1217273d2f627d0017ec64736f6c634300060c0033",
  "immutableReferences": {},
  "source": "pragma solidity 0.6.12;\n\n//import \"@pancakeswap/pancake-swap-lib/contracts/math/SafeMath.sol\";\n//import \"@pancakeswap/pancake-swap-lib/contracts/access/Ownable.sol\";\n//import '@pancakeswap/pancake-swap-lib/contracts/token/BEP20/SafeBEP20.sol';\n//import '@pancakeswap/pancake-swap-lib/contracts/access/Ownable.sol';\n\nimport \"./libs/SafeBEP20.sol\";\nimport \"./CakeToken.sol\";\nimport \"./SyrupBar.sol\";\n\n// import \"@nomiclabs/buidler/console.sol\";\n\ninterface IMigratorChef {\n    // Perform LP token migration from legacy PancakeSwap to CakeSwap.\n    // Take the current LP token address and return the new LP token address.\n    // Migrator should have full access to the caller's LP token.\n    // Return the new LP token address.\n    //\n    // XXX Migrator must have allowance access to PancakeSwap LP tokens.\n    // CakeSwap must mint EXACTLY the same amount of CakeSwap LP tokens or\n    // else something bad will happen. Traditional PancakeSwap does not\n    // do that so be careful!\n    function migrate(IBEP20 token) external returns (IBEP20);\n}\n\n// MasterChef is the master of Cake. He can make Cake and he is a fair guy.\n//\n// Note that it's ownable and the owner wields tremendous power. The ownership\n// will be transferred to a governance smart contract once GUT is sufficiently\n// distributed and the community can show to govern itself.\n//\n// Have fun reading it. Hopefully it's bug-free. God bless.\ncontract GuitarMasterChef is Ownable {\n    using SafeMath for uint256;\n    using SafeBEP20 for IBEP20;\n\n    // Info of each user.\n    struct UserInfo {\n        uint256 amount; // How many LP tokens the user has provided.\n        uint256 rewardDebt; // Reward debt. See explanation below.\n        //\n        // We do some fancy math here. Basically, any point in time, the amount of GUTs\n        // entitled to a user but is pending to be distributed is:\n        //\n        //   pending reward = (user.amount * pool.accGuitarPerShare) - user.rewardDebt\n        //\n        // Whenever a user deposits or withdraws LP tokens to a pool. Here's what happens:\n        //   1. The pool's `accGuitarPerShare` (and `lastRewardBlock`) gets updated.\n        //   2. User receives the pending reward sent to his/her address.\n        //   3. User's `amount` gets updated.\n        //   4. User's `rewardDebt` gets updated.\n    }\n\n    // Info of each pool.\n    struct PoolInfo {\n        IBEP20 lpToken; // Address of LP token contract.\n        uint256 lpSupply; // Pool lp supply\n        uint256 allocPoint; // How many allocation points assigned to this pool. GUTs to distribute per block.\n        uint256 lastRewardBlock; // Last block number that GUTs distribution occurs.\n        uint256 accGuitarPerShare; // Accumulated GUTs per share, times 1e12. See below.\n        uint16 depositFeeBP; // Deposit fee in basis points\n    }\n\n    // The GUT TOKEN!\n    GuitarToken public guitar;\n    // The SYRUP TOKEN!\n    GuitarSyrupBar public syrup;\n    // Dev address.\n    address public devaddr;\n    // Deposit Fee address\n    address public feeAddress;\n    // GUT tokens created per block.\n    uint256 public guitarPerBlock;\n    // Maximum emission rate\n    uint256 public constant MAXIMUM_EMISSON_RATE = 10**24;\n\n    // Bonus muliplier for early guitar makers.\n    uint256 public BONUS_MULTIPLIER = 1;\n    // The migrator contract. It has a lot of power. Can only be set through governance (owner).\n    IMigratorChef public migrator;    \n    // Info of each pool.\n    PoolInfo[] public poolInfo;\n    // Info of each user that stakes LP tokens.\n    mapping(uint256 => mapping(address => UserInfo)) public userInfo;\n    // Total allocation points. Must be the sum of all allocation points in all pools.\n    uint256 public totalAllocPoint = 0;\n    // Max deposit fee per pools: 20%\n    uint16 public constant MAX_DEPOSIT_FEE = 2000;\n    // The block number when GUT mining starts.\n    uint256 public startBlock;\n\n    event Deposit(address indexed user, uint256 indexed pid, uint256 amount);\n    event Withdraw(address indexed user, uint256 indexed pid, uint256 amount);\n    event EmergencyWithdraw(\n        address indexed user,\n        uint256 indexed pid,\n        uint256 amount\n    );\n    event SetFeeAddress(address indexed user, address indexed newAddress);\n    event SetDevAddress(address indexed user, address indexed newAddress);\n    event UpdateEmissionRate(address indexed user, uint256 guitarPerBlock);\n    \n    constructor(\n        GuitarToken _guitar,\n        GuitarSyrupBar _syrup,\n        address _devaddr,\n        address _feeAddress,\n        uint256 _guitarPerBlock,\n        uint256 _startBlock\n    ) public {\n        guitar = _guitar;\n        syrup = _syrup;\n        devaddr = _devaddr;\n        feeAddress = _feeAddress;\n        guitarPerBlock = _guitarPerBlock;\n        startBlock = _startBlock;\n\n        // staking pool\n        poolInfo.push(\n            PoolInfo({\n                lpToken: _guitar,\n                lpSupply: 0,\n                allocPoint: 1000,\n                lastRewardBlock: startBlock,\n                depositFeeBP: 0,\n                accGuitarPerShare: 0\n            })\n        );\n\n        totalAllocPoint = 1000;\n    }\n\n    function updateMultiplier(uint256 multiplierNumber) public onlyOwner {\n        BONUS_MULTIPLIER = multiplierNumber;\n    }\n\n    function poolLength() external view returns (uint256) {\n        return poolInfo.length;\n    }\n\n    mapping(IBEP20 => bool) public poolExistence;\n    modifier nonDuplicated(IBEP20 _lpToken) {\n        require(poolExistence[_lpToken] == false, \"nonDuplicated: duplicated\");\n        _;\n    }\n\n    // Add a new lp to the pool. Can only be called by the owner.\n    // XXX DO NOT add the same LP token more than once. Rewards will be messed up if you do.\n    function add(\n        uint256 _allocPoint,\n        IBEP20 _lpToken,\n        uint16 _depositFeeBP,\n        bool _withUpdate\n    ) external onlyOwner nonDuplicated(_lpToken) {\n        require(\n            _depositFeeBP <= MAX_DEPOSIT_FEE,\n            \"add: invalid deposit fee basis points\"\n        );\n        _lpToken.balanceOf(address(this));      // Check if lptoken is the actual token contract\n\n        if (_withUpdate) {\n            massUpdatePools();\n        }\n        uint256 lastRewardBlock = block.number > startBlock\n            ? block.number\n            : startBlock;\n        totalAllocPoint = totalAllocPoint.add(_allocPoint);\n        poolExistence[_lpToken] = true;\n        poolInfo.push(\n            PoolInfo({\n                lpToken: _lpToken,\n                lpSupply: 0,\n                allocPoint: _allocPoint,\n                lastRewardBlock: lastRewardBlock,\n                accGuitarPerShare: 0,\n                depositFeeBP: _depositFeeBP\n            })\n        );\n        updateStakingPool();\n    }\n\n    // Update the given pool's GUT allocation point. Can only be called by the owner.\n    function set(\n        uint256 _pid,\n        uint256 _allocPoint,\n        uint16 _depositFeeBP,\n        bool _withUpdate\n    ) external onlyOwner {\n        require(\n            _depositFeeBP < MAX_DEPOSIT_FEE,\n            \"set: invalid deposit fee basis points\"\n        );\n        if (_withUpdate) {\n            massUpdatePools();\n        }\n        uint256 prevAllocPoint = poolInfo[_pid].allocPoint;\n        poolInfo[_pid].allocPoint = _allocPoint;\n        poolInfo[_pid].depositFeeBP = _depositFeeBP;\n        if (prevAllocPoint != _allocPoint) {\n            totalAllocPoint = totalAllocPoint.sub(prevAllocPoint).add(\n                _allocPoint\n            );\n            updateStakingPool();\n        }\n    }\n\n    function updateStakingPool() internal {\n        uint256 length = poolInfo.length;\n        uint256 points = 0;\n        for (uint256 pid = 1; pid < length; ++pid) {\n            points = points.add(poolInfo[pid].allocPoint);\n        }\n        if (points != 0) {\n            points = points.div(3);\n            totalAllocPoint = totalAllocPoint.sub(poolInfo[0].allocPoint).add(\n                points\n            );\n            poolInfo[0].allocPoint = points;\n        }\n    }\n\n    // Set the migrator contract. Can only be called by the owner.\n    function setMigrator(IMigratorChef _migrator) public onlyOwner {\n        migrator = _migrator;\n    }\n\n    // Migrate lp token to another lp contract. Can be called by anyone. We trust that migrator contract is good.\n    function migrate(uint256 _pid) public {\n        require(address(migrator) != address(0), \"migrate: no migrator\");\n        PoolInfo storage pool = poolInfo[_pid];\n        IBEP20 lpToken = pool.lpToken;\n        uint256 bal = lpToken.balanceOf(address(this));\n        lpToken.safeApprove(address(migrator), bal);\n        IBEP20 newLpToken = migrator.migrate(lpToken);\n        require(bal == newLpToken.balanceOf(address(this)), \"migrate: bad\");\n        pool.lpToken = newLpToken;\n    }\n\n    // Return reward multiplier over the given _from to _to block.\n    function getMultiplier(uint256 _from, uint256 _to)\n        public\n        view\n        returns (uint256)\n    {\n        return _to.sub(_from).mul(BONUS_MULTIPLIER);\n    }\n\n    // View function to see pending GUTs on frontend.\n    function pendingGuitar(uint256 _pid, address _user)\n        external\n        view\n        returns (uint256)\n    {\n        PoolInfo storage pool = poolInfo[_pid];\n        UserInfo storage user = userInfo[_pid][_user];\n        uint256 accGuitarPerShare = pool.accGuitarPerShare;\n        if (block.number > pool.lastRewardBlock && pool.lpSupply != 0 && totalAllocPoint > 0) {\n            uint256 multiplier = getMultiplier(\n                pool.lastRewardBlock,\n                block.number\n            );\n            uint256 guitarReward = multiplier\n                .mul(guitarPerBlock)\n                .mul(pool.allocPoint)\n                .div(totalAllocPoint);\n            accGuitarPerShare = accGuitarPerShare.add(\n                guitarReward.mul(1e12).div(pool.lpSupply)\n            );\n        }\n        return user.amount.mul(accGuitarPerShare).div(1e12).sub(user.rewardDebt);\n    }\n\n    // Update reward variables for all pools. Be careful of gas spending!\n    function massUpdatePools() public {\n        uint256 length = poolInfo.length;\n        for (uint256 pid = 0; pid < length; ++pid) {\n            updatePool(pid);\n        }\n    }\n\n    // Update reward variables of the given pool to be up-to-date.\n    function updatePool(uint256 _pid) public {\n        PoolInfo storage pool = poolInfo[_pid];\n        if (block.number <= pool.lastRewardBlock) {\n            return;\n        }\n        \n        if (pool.lpSupply == 0 || totalAllocPoint == 0) {\n            pool.lastRewardBlock = block.number;\n            return;\n        }\n        uint256 multiplier = getMultiplier(pool.lastRewardBlock, block.number);\n        uint256 guitarReward = multiplier\n            .mul(guitarPerBlock)\n            .mul(pool.allocPoint)\n            .div(totalAllocPoint);\n        guitar.mintFor(devaddr, guitarReward.div(10));\n        guitar.mintFor(address(syrup), guitarReward);\n        pool.accGuitarPerShare = pool.accGuitarPerShare.add(\n            guitarReward.mul(1e12).div(pool.lpSupply)\n        );\n        pool.lastRewardBlock = block.number;\n    }\n\n    // Deposit LP tokens to MasterChef for GUT allocation.\n    function deposit(\n        uint256 _pid,\n        uint256 _amount\n    ) external {\n        require(_pid != 0, \"deposit GUT by staking\");\n\n        PoolInfo storage pool = poolInfo[_pid];\n        UserInfo storage user = userInfo[_pid][msg.sender];\n        updatePool(_pid);\n\n        if (user.amount > 0) {\n            uint256 pending = user\n                .amount\n                .mul(pool.accGuitarPerShare)\n                .div(1e12)\n                .sub(user.rewardDebt);\n            if (pending > 0) {\n                safeGuitarTransfer(msg.sender, pending);\n            }\n        }\n        if (_amount > 0) {\n            uint256 balanceBefore = pool.lpToken.balanceOf(address(this));\n            pool.lpToken.safeTransferFrom(\n                address(msg.sender),\n                address(this),\n                _amount\n            );\n            _amount = pool.lpToken.balanceOf(address(this)).sub(balanceBefore);\n            uint256 depositFee = 0;\n            if (pool.depositFeeBP > 0) {\n                depositFee = _amount.mul(pool.depositFeeBP).div(10000);\n                if (depositFee > 0) {\n                    pool.lpToken.safeTransfer(feeAddress, depositFee);\n                }\n            }\n            user.amount = user.amount.add(_amount).sub(depositFee);\n            pool.lpSupply = pool.lpSupply.add(_amount).sub(depositFee);\n        }\n        user.rewardDebt = user.amount.mul(pool.accGuitarPerShare).div(1e12);\n        emit Deposit(msg.sender, _pid, _amount);\n    }\n\n    // Withdraw LP tokens from MasterChef.\n    function withdraw(uint256 _pid, uint256 _amount) external {\n        require(_pid != 0, \"withdraw GUT by unstaking\");\n        PoolInfo storage pool = poolInfo[_pid];\n        UserInfo storage user = userInfo[_pid][msg.sender];\n        require(user.amount >= _amount, \"withdraw: not good(user balance not enough)\");\n        require(pool.lpSupply >= _amount, \"withdraw: not good(pool balance not enough)\");\n\n        updatePool(_pid);\n        uint256 pending = user.amount.mul(pool.accGuitarPerShare).div(1e12).sub(\n            user.rewardDebt\n        );\n        if (pending > 0) {\n            safeGuitarTransfer(msg.sender, pending);\n        }\n        if (_amount > 0) {\n            user.amount = user.amount.sub(_amount);\n            pool.lpSupply = pool.lpSupply.sub(_amount);\n            pool.lpToken.safeTransfer(address(msg.sender), _amount);\n        }\n        user.rewardDebt = user.amount.mul(pool.accGuitarPerShare).div(1e12);\n        emit Withdraw(msg.sender, _pid, _amount);\n    }\n\n    // Stake GUT tokens to MasterChef\n    function enterStaking(uint256 _amount) external {\n        PoolInfo storage pool = poolInfo[0];\n        UserInfo storage user = userInfo[0][msg.sender];\n        updatePool(0);\n        if (user.amount > 0) {\n            uint256 pending = user\n                .amount\n                .mul(pool.accGuitarPerShare)\n                .div(1e12)\n                .sub(user.rewardDebt);\n            if (pending > 0) {\n                safeGuitarTransfer(msg.sender, pending);\n            }\n        }\n        if (_amount > 0) {\n            uint256 balanceBefore = pool.lpToken.balanceOf(address(this));\n            pool.lpToken.safeTransferFrom(\n                address(msg.sender),\n                address(this),\n                _amount\n            );\n            _amount = pool.lpToken.balanceOf(address(this)).sub(balanceBefore);\n            uint256 depositFee = 0;\n            if (pool.depositFeeBP > 0) {\n                depositFee = _amount.mul(pool.depositFeeBP).div(10000);\n                if (depositFee > 0) {\n                    pool.lpToken.safeTransfer(feeAddress, depositFee);\n                }\n            }\n            user.amount = user.amount.add(_amount).sub(depositFee);\n            pool.lpSupply = pool.lpSupply.add(_amount).sub(depositFee);\n        }\n        user.rewardDebt = user.amount.mul(pool.accGuitarPerShare).div(1e12);\n\n        syrup.mint(msg.sender, _amount);\n        emit Deposit(msg.sender, 0, _amount);\n    }\n\n    // Withdraw GUT tokens from STAKING.\n    function leaveStaking(uint256 _amount) external {\n        PoolInfo storage pool = poolInfo[0];\n        UserInfo storage user = userInfo[0][msg.sender];\n        require(user.amount >= _amount, \"withdraw: not good(user balance not enough)\");\n        require(pool.lpSupply >= _amount, \"withdraw: not good(pool balance not enough)\");\n        updatePool(0);\n        uint256 pending = user.amount.mul(pool.accGuitarPerShare).div(1e12).sub(\n            user.rewardDebt\n        );\n        if (pending > 0) {\n            safeGuitarTransfer(msg.sender, pending);\n        }\n        if (_amount > 0) {\n            user.amount = user.amount.sub(_amount);\n            pool.lpSupply = pool.lpSupply.sub(_amount);\n            pool.lpToken.safeTransfer(address(msg.sender), _amount);\n        }\n        user.rewardDebt = user.amount.mul(pool.accGuitarPerShare).div(1e12);\n\n        syrup.burn(msg.sender, _amount);\n        emit Withdraw(msg.sender, 0, _amount);\n    }\n\n    // Withdraw without caring about rewards. EMERGENCY ONLY.\n    function emergencyWithdraw(uint256 _pid) external {\n        PoolInfo storage pool = poolInfo[_pid];\n        UserInfo storage user = userInfo[_pid][msg.sender];\n        pool.lpSupply = pool.lpSupply.sub(user.amount);\n        pool.lpToken.safeTransfer(address(msg.sender), user.amount);\n        emit EmergencyWithdraw(msg.sender, _pid, user.amount);\n        user.amount = 0;\n        user.rewardDebt = 0;\n    }\n\n    // Safe guitar transfer function, just in case if rounding error causes pool to not have enough GUTs.\n    function safeGuitarTransfer(address _to, uint256 _amount) internal {\n        syrup.safeGuitarTransfer(_to, _amount);\n    }\n\n    // Update dev address by the previous dev.\n    function dev(address _devaddr) external {\n        require(msg.sender == devaddr, \"dev: wut?\");\n        devaddr = _devaddr;\n        emit SetDevAddress(msg.sender, _devaddr);\n    }\n\n    function setFeeAddress(address _feeAddress) external {\n        require(msg.sender == feeAddress, \"setFeeAddress: FORBIDDEN\");\n        feeAddress = _feeAddress;\n        emit SetFeeAddress(msg.sender, _feeAddress);\n    }\n\n    // Update emission rate\n    function updateEmissionRate(uint256 _guitarPerBlock) external onlyOwner {\n        require(_guitarPerBlock <= MAXIMUM_EMISSON_RATE, \"Too high\");\n        massUpdatePools();\n        guitarPerBlock = _guitarPerBlock;\n        emit UpdateEmissionRate(msg.sender, _guitarPerBlock);\n    }\n}\n",
  "sourcePath": "G:\\Blockchain\\Ethereum\\GuitarSwap\\Work\\PancakeSwap\\Work\\guitar-contracts\\contracts\\MasterChef.sol",
  "compiler": {
    "name": "solc",
    "version": "0.6.12+commit.27d51765.Emscripten.clang"
  },
  "schemaVersion": "3.4.5",
  "updatedAt": "2022-03-17T16:25:04.879Z",
  "devdoc": {
    "kind": "dev",
    "methods": {
      "owner()": {
        "details": "Returns the address of the current owner."
      },
      "renounceOwnership()": {
        "details": "Leaves the contract without owner. It will not be possible to call `onlyOwner` functions anymore. Can only be called by the current owner. NOTE: Renouncing ownership will leave the contract without an owner, thereby removing any functionality that is only available to the owner."
      },
      "transferOwnership(address)": {
        "details": "Transfers ownership of the contract to a new account (`newOwner`). Can only be called by the current owner."
      }
    },
    "version": 1
  },
  "userdoc": {
    "kind": "user",
    "methods": {},
    "version": 1
  }
}