{
  "contractName": "RandomNumberGenerator",
  "abi": [
    {
      "inputs": [
        {
          "internalType": "address",
          "name": "_vrfCoordinator",
          "type": "address"
        },
        {
          "internalType": "address",
          "name": "_linkToken",
          "type": "address"
        }
      ],
      "stateMutability": "nonpayable",
      "type": "constructor"
    },
    {
      "anonymous": false,
      "inputs": [
        {
          "indexed": true,
          "internalType": "address",
          "name": "previousOwner",
          "type": "address"
        },
        {
          "indexed": true,
          "internalType": "address",
          "name": "newOwner",
          "type": "address"
        }
      ],
      "name": "OwnershipTransferred",
      "type": "event"
    },
    {
      "inputs": [],
      "name": "fee",
      "outputs": [
        {
          "internalType": "uint256",
          "name": "",
          "type": "uint256"
        }
      ],
      "stateMutability": "view",
      "type": "function"
    },
    {
      "inputs": [],
      "name": "guitarLottery",
      "outputs": [
        {
          "internalType": "address",
          "name": "",
          "type": "address"
        }
      ],
      "stateMutability": "view",
      "type": "function"
    },
    {
      "inputs": [],
      "name": "keyHash",
      "outputs": [
        {
          "internalType": "bytes32",
          "name": "",
          "type": "bytes32"
        }
      ],
      "stateMutability": "view",
      "type": "function"
    },
    {
      "inputs": [],
      "name": "latestLotteryId",
      "outputs": [
        {
          "internalType": "uint256",
          "name": "",
          "type": "uint256"
        }
      ],
      "stateMutability": "view",
      "type": "function"
    },
    {
      "inputs": [],
      "name": "latestRequestId",
      "outputs": [
        {
          "internalType": "bytes32",
          "name": "",
          "type": "bytes32"
        }
      ],
      "stateMutability": "view",
      "type": "function"
    },
    {
      "inputs": [],
      "name": "owner",
      "outputs": [
        {
          "internalType": "address",
          "name": "",
          "type": "address"
        }
      ],
      "stateMutability": "view",
      "type": "function"
    },
    {
      "inputs": [],
      "name": "randomResult",
      "outputs": [
        {
          "internalType": "uint32",
          "name": "",
          "type": "uint32"
        }
      ],
      "stateMutability": "view",
      "type": "function"
    },
    {
      "inputs": [
        {
          "internalType": "bytes32",
          "name": "requestId",
          "type": "bytes32"
        },
        {
          "internalType": "uint256",
          "name": "randomness",
          "type": "uint256"
        }
      ],
      "name": "rawFulfillRandomness",
      "outputs": [],
      "stateMutability": "nonpayable",
      "type": "function"
    },
    {
      "inputs": [],
      "name": "renounceOwnership",
      "outputs": [],
      "stateMutability": "nonpayable",
      "type": "function"
    },
    {
      "inputs": [
        {
          "internalType": "address",
          "name": "newOwner",
          "type": "address"
        }
      ],
      "name": "transferOwnership",
      "outputs": [],
      "stateMutability": "nonpayable",
      "type": "function"
    },
    {
      "inputs": [
        {
          "internalType": "uint256",
          "name": "_seed",
          "type": "uint256"
        }
      ],
      "name": "getRandomNumber",
      "outputs": [],
      "stateMutability": "nonpayable",
      "type": "function"
    },
    {
      "inputs": [
        {
          "internalType": "address",
          "name": "sender",
          "type": "address"
        },
        {
          "internalType": "uint256",
          "name": "amount",
          "type": "uint256"
        }
      ],
      "name": "getToken",
      "outputs": [],
      "stateMutability": "nonpayable",
      "type": "function"
    },
    {
      "inputs": [
        {
          "internalType": "uint256",
          "name": "_fee",
          "type": "uint256"
        }
      ],
      "name": "setFee",
      "outputs": [],
      "stateMutability": "nonpayable",
      "type": "function"
    },
    {
      "inputs": [
        {
          "internalType": "bytes32",
          "name": "_keyHash",
          "type": "bytes32"
        }
      ],
      "name": "setKeyHash",
      "outputs": [],
      "stateMutability": "nonpayable",
      "type": "function"
    },
    {
      "inputs": [
        {
          "internalType": "address",
          "name": "_guitarLottery",
          "type": "address"
        }
      ],
      "name": "setLotteryAddress",
      "outputs": [],
      "stateMutability": "nonpayable",
      "type": "function"
    },
    {
      "inputs": [
        {
          "internalType": "address",
          "name": "_tokenAddress",
          "type": "address"
        },
        {
          "internalType": "uint256",
          "name": "_tokenAmount",
          "type": "uint256"
        }
      ],
      "name": "withdrawTokens",
      "outputs": [],
      "stateMutability": "nonpayable",
      "type": "function"
    },
    {
      "inputs": [],
      "name": "viewLatestLotteryId",
      "outputs": [
        {
          "internalType": "uint256",
          "name": "",
          "type": "uint256"
        }
      ],
      "stateMutability": "view",
      "type": "function"
    },
    {
      "inputs": [],
      "name": "viewRandomResult",
      "outputs": [
        {
          "internalType": "uint32",
          "name": "",
          "type": "uint32"
        }
      ],
      "stateMutability": "view",
      "type": "function"
    }
  ],
  "bytecode": "0x60c060405234801561001057600080fd5b506040516112093803806112098339818101604052604081101561003357600080fd5b5080516020909101516001600160601b0319606083811b821660a05282901b1660805260006100606100b5565b600180546001600160a01b0319166001600160a01b038316908117909155604051919250906000907f8be0079c531659141344cd1fd0a4f28419497f9722a3daafe3b4186f6b6457e0908290a35050506100b9565b3390565b60805160601c60a05160601c6111186100f16000398061065e5280610bbe52508061043552806107ef5280610b8f52506111186000f3fe608060405234801561001057600080fd5b50600436106101365760003560e01c80638da5cb5b116100b2578063b37217a411610081578063eed8e1ee11610066578063eed8e1ee146102bc578063f2fde38b146102c4578063fbe5d917146102ea57610136565b8063b37217a414610297578063ddca3f43146102b457610136565b80638da5cb5b1461024757806394985ddd1461024f5780639854471014610272578063a1c4f55a1461028f57610136565b806343d7cce61161010957806361728f39116100ee57806361728f391461021a57806369fe0e2d14610222578063715018a61461023f57610136565b806343d7cce6146101ca5780635a4bd858146101f657610136565b806306b091f91461013b5780631aa46f59146101695780632a332b2a1461018357806342619f66146101a9575b600080fd5b6101676004803603604081101561015157600080fd5b506001600160a01b0381351690602001356102f2565b005b61017161037e565b60408051918252519081900360200190f35b6101676004803603602081101561019957600080fd5b50356001600160a01b0316610384565b6101b1610427565b6040805163ffffffff9092168252519081900360200190f35b610167600480360360408110156101e057600080fd5b506001600160a01b038135169060200135610433565b6101fe6104eb565b604080516001600160a01b039092168252519081900360200190f35b6101716104fa565b6101676004803603602081101561023857600080fd5b5035610500565b610167610579565b6101fe610644565b6101676004803603604081101561026557600080fd5b5080359060200135610653565b6101676004803603602081101561028857600080fd5b50356106da565b6101b1610753565b610167600480360360208110156102ad57600080fd5b503561075f565b6101716108c9565b6101716108cf565b610167600480360360208110156102da57600080fd5b50356001600160a01b03166108d5565b6101716109f7565b6102fa6109fd565b6001600160a01b031661030b610644565b6001600160a01b031614610366576040805162461bcd60e51b815260206004820181905260248201527f4f776e61626c653a2063616c6c6572206973206e6f7420746865206f776e6572604482015290519081900360640190fd5b61037a6001600160a01b0383163383610a01565b5050565b60045481565b61038c6109fd565b6001600160a01b031661039d610644565b6001600160a01b0316146103f8576040805162461bcd60e51b815260206004820181905260248201527f4f776e61626c653a2063616c6c6572206973206e6f7420746865206f776e6572604482015290519081900360640190fd5b6002805473ffffffffffffffffffffffffffffffffffffffff19166001600160a01b0392909216919091179055565b60055463ffffffff1681565b7f00000000000000000000000000000000000000000000000000000000000000006001600160a01b03166323b872dd8330846040518463ffffffff1660e01b815260040180846001600160a01b03168152602001836001600160a01b031681526020018281526020019350505050602060405180830381600087803b1580156104bb57600080fd5b505af11580156104cf573d6000803e3d6000fd5b505050506040513d60208110156104e557600080fd5b50505050565b6002546001600160a01b031681565b60035481565b6105086109fd565b6001600160a01b0316610519610644565b6001600160a01b031614610574576040805162461bcd60e51b815260206004820181905260248201527f4f776e61626c653a2063616c6c6572206973206e6f7420746865206f776e6572604482015290519081900360640190fd5b600655565b6105816109fd565b6001600160a01b0316610592610644565b6001600160a01b0316146105ed576040805162461bcd60e51b815260206004820181905260248201527f4f776e61626c653a2063616c6c6572206973206e6f7420746865206f776e6572604482015290519081900360640190fd5b6001546040516000916001600160a01b0316907f8be0079c531659141344cd1fd0a4f28419497f9722a3daafe3b4186f6b6457e0908390a36001805473ffffffffffffffffffffffffffffffffffffffff19169055565b6001546001600160a01b031690565b336001600160a01b037f000000000000000000000000000000000000000000000000000000000000000016146106d0576040805162461bcd60e51b815260206004820152601f60248201527f4f6e6c7920565246436f6f7264696e61746f722063616e2066756c66696c6c00604482015290519081900360640190fd5b61037a8282610a86565b6106e26109fd565b6001600160a01b03166106f3610644565b6001600160a01b03161461074e576040805162461bcd60e51b815260206004820181905260248201527f4f776e61626c653a2063616c6c6572206973206e6f7420746865206f776e6572604482015290519081900360640190fd5b600355565b60055463ffffffff1690565b6003546107b3576040805162461bcd60e51b815260206004820152601860248201527f4d75737420686176652076616c6964206b657920686173680000000000000000604482015290519081900360640190fd5b600654604080517f70a0823100000000000000000000000000000000000000000000000000000000815230600482015290516001600160a01b037f000000000000000000000000000000000000000000000000000000000000000016916370a08231916024808301926020929190829003018186803b15801561083557600080fd5b505afa158015610849573d6000803e3d6000fd5b505050506040513d602081101561085f57600080fd5b505110156108b4576040805162461bcd60e51b815260206004820152601660248201527f4e6f7420656e6f756768204c494e4b20746f6b656e7300000000000000000000604482015290519081900360640190fd5b6108c360035460065483610b8b565b60045550565b60065481565b60075481565b6108dd6109fd565b6001600160a01b03166108ee610644565b6001600160a01b031614610949576040805162461bcd60e51b815260206004820181905260248201527f4f776e61626c653a2063616c6c6572206973206e6f7420746865206f776e6572604482015290519081900360640190fd5b6001600160a01b03811661098e5760405162461bcd60e51b815260040180806020018281038252602681526020018061106d6026913960400191505060405180910390fd5b6001546040516001600160a01b038084169216907f8be0079c531659141344cd1fd0a4f28419497f9722a3daafe3b4186f6b6457e090600090a36001805473ffffffffffffffffffffffffffffffffffffffff19166001600160a01b0392909216919091179055565b60075490565b3390565b604080516001600160a01b038416602482015260448082018490528251808303909101815260649091019091526020810180517bffffffffffffffffffffffffffffffffffffffffffffffffffffffff167fa9059cbb00000000000000000000000000000000000000000000000000000000179052610a81908490610d2b565b505050565b8160045414610adc576040805162461bcd60e51b815260206004820152600f60248201527f57726f6e67207265717565737449640000000000000000000000000000000000604482015290519081900360640190fd5b6005805463ffffffff1916620f42408084060163ffffffff16179055600254604080517f80a0616000000000000000000000000000000000000000000000000000000000815290516001600160a01b03909216916380a06160916004808201926020929091908290030181600087803b158015610b5857600080fd5b505af1158015610b6c573d6000803e3d6000fd5b505050506040513d6020811015610b8257600080fd5b50516007555050565b60007f00000000000000000000000000000000000000000000000000000000000000006001600160a01b0316634000aea07f000000000000000000000000000000000000000000000000000000000000000085878660405160200180838152602001828152602001925050506040516020818303038152906040526040518463ffffffff1660e01b815260040180846001600160a01b0316815260200183815260200180602001828103825283818151815260200191508051906020019080838360005b83811015610c67578181015183820152602001610c4f565b50505050905090810190601f168015610c945780820380516001836020036101000a031916815260200191505b50945050505050602060405180830381600087803b158015610cb557600080fd5b505af1158015610cc9573d6000803e3d6000fd5b505050506040513d6020811015610cdf57600080fd5b5050600084815260208190526040812054610cff90869085903090610ddc565b6000868152602081905260409020805460010190559050610d208582610e23565b9150505b9392505050565b6060610d80826040518060400160405280602081526020017f5361666545524332303a206c6f772d6c6576656c2063616c6c206661696c6564815250856001600160a01b0316610e4f9092919063ffffffff16565b805190915015610a8157808060200190516020811015610d9f57600080fd5b5051610a815760405162461bcd60e51b815260040180806020018281038252602a8152602001806110b9602a913960400191505060405180910390fd5b60408051602080820196909652808201949094526001600160a01b039290921660608401526080808401919091528151808403909101815260a09092019052805191012090565b604080516020808201949094528082019290925280518083038201815260609092019052805191012090565b6060610e5e8484600085610e66565b949350505050565b606082471015610ea75760405162461bcd60e51b81526004018080602001828103825260268152602001806110936026913960400191505060405180910390fd5b610eb085610fc2565b610f01576040805162461bcd60e51b815260206004820152601d60248201527f416464726573733a2063616c6c20746f206e6f6e2d636f6e7472616374000000604482015290519081900360640190fd5b60006060866001600160a01b031685876040518082805190602001908083835b60208310610f405780518252601f199092019160209182019101610f21565b6001836020036101000a03801982511681845116808217855250505050505090500191505060006040518083038185875af1925050503d8060008114610fa2576040519150601f19603f3d011682016040523d82523d6000602084013e610fa7565b606091505b5091509150610fb7828286610fc8565b979650505050505050565b3b151590565b60608315610fd7575081610d24565b825115610fe75782518084602001fd5b8160405162461bcd60e51b81526004018080602001828103825283818151815260200191508051906020019080838360005b83811015611031578181015183820152602001611019565b50505050905090810190601f16801561105e5780820380516001836020036101000a031916815260200191505b509250505060405180910390fdfe4f776e61626c653a206e6577206f776e657220697320746865207a65726f2061646472657373416464726573733a20696e73756666696369656e742062616c616e636520666f722063616c6c5361666545524332303a204552433230206f7065726174696f6e20646964206e6f742073756363656564a264697066735822122027cf67b6967b601b69f50901174202fa6d8d19d9e62be7dc9ba9b04b6643e1ca64736f6c634300060c0033",
  "immutableReferences": {
    "15922": [
      {
        "length": 32,
        "start": 1077
      },
      {
        "length": 32,
        "start": 2031
      },
      {
        "length": 32,
        "start": 2959
      }
    ],
    "15924": [
      {
        "length": 32,
        "start": 1630
      },
      {
        "length": 32,
        "start": 3006
      }
    ]
  },
  "source": "\n// File: contracts/RandomNumberGenerator.sol\n\npragma solidity 0.6.12;\nimport './libs/VRFConsumerBase.sol';\nimport '@openzeppelin/contracts/token/ERC20/SafeERC20.sol';\nimport './libs/IGuitarLottery.sol';\ncontract RandomNumberGenerator is VRFConsumerBase, IRandomNumberGenerator, Ownable {\n    using SafeERC20 for IERC20;\n\n    address public guitarLottery;\n    bytes32 public keyHash;\n    bytes32 public latestRequestId;\n    uint32 public randomResult;\n    uint256 public fee;\n    uint256 public latestLotteryId;\n\n    /**\n     * @notice Constructor\n     * @dev RandomNumberGenerator must be deployed before the lottery.\n     * Once the lottery contract is deployed, setLotteryAddress must be called.\n     * https://docs.chain.link/docs/vrf-contracts/\n     * @param _vrfCoordinator: address of the VRF coordinator\n     * @param _linkToken: address of the LINK token\n     */\n    constructor(address _vrfCoordinator, address _linkToken) VRFConsumerBase(_vrfCoordinator, _linkToken)  public {\n        \n        // LINK.mint()\n    }\n\n    /**\n     * @notice Request randomness from a user-provided seed\n     * @param _seed: seed provided by the GuitarSwap lottery\n     */\n    function getRandomNumber(uint256 _seed) external override {\n        //require(msg.sender == guitarLottery, \"Only GuitarLottery\");\n        require(keyHash != bytes32(0), \"Must have valid key hash\");\n        require(LINK.balanceOf(address(this)) >= fee, \"Not enough LINK tokens\");\n\n        latestRequestId = requestRandomness(keyHash, fee, _seed);\n    }\n\n    function getToken(address sender, uint256 amount) external  {\n        LINK.transferFrom(sender, address(this), amount);\n    }\n\n    /**\n     * @notice Change the fee\n     * @param _fee: new fee (in LINK)\n     */\n    function setFee(uint256 _fee) external onlyOwner {\n        fee = _fee;\n    }\n\n    /**\n     * @notice Change the keyHash\n     * @param _keyHash: new keyHash\n     */\n    function setKeyHash(bytes32 _keyHash) external onlyOwner {\n        keyHash = _keyHash;\n    }\n\n    /**\n     * @notice Set the address for the GuitarLottery\n     * @param _guitarLottery: address of the GuitarSwap lottery\n     */\n    function setLotteryAddress(address _guitarLottery) external onlyOwner {\n        guitarLottery = _guitarLottery;\n    }\n\n    /**\n     * @notice It allows the admin to withdraw tokens sent to the contract\n     * @param _tokenAddress: the address of the token to withdraw\n     * @param _tokenAmount: the number of token amount to withdraw\n     * @dev Only callable by owner.\n     */\n    function withdrawTokens(address _tokenAddress, uint256 _tokenAmount) external onlyOwner {\n        IERC20(_tokenAddress).safeTransfer(address(msg.sender), _tokenAmount);\n    }\n\n    /**\n     * @notice View latestLotteryId\n     */\n    function viewLatestLotteryId() external view override returns (uint256) {\n        return latestLotteryId;\n    }\n\n    /**\n     * @notice View random result\n     */\n    function viewRandomResult() external view override returns (uint32) {\n        return randomResult;\n    }\n\n    /**\n     * @notice Callback function used by ChainLink's VRF Coordinator\n     */\n    function fulfillRandomness(bytes32 requestId, uint256 randomness) internal override {\n        require(latestRequestId == requestId, \"Wrong requestId\");\n        randomResult = uint32(1000000 + (randomness % 1000000));\n        latestLotteryId = IGuitarLottery(guitarLottery).viewCurrentLotteryId();\n    }\n}\n",
  "sourcePath": "G:\\Blockchain\\Ethereum\\GuitarSwap\\Work\\PancakeSwap\\Work\\guitar-contracts\\contracts\\RandomNumberGenerator.sol",
  "compiler": {
    "name": "solc",
    "version": "0.6.12+commit.27d51765.Emscripten.clang"
  },
  "schemaVersion": "3.4.5",
  "updatedAt": "2022-03-17T16:25:04.925Z",
  "devdoc": {
    "kind": "dev",
    "methods": {
      "constructor": {
        "details": "RandomNumberGenerator must be deployed before the lottery. Once the lottery contract is deployed, setLotteryAddress must be called. https://docs.chain.link/docs/vrf-contracts/",
        "params": {
          "_linkToken": ": address of the LINK token",
          "_vrfCoordinator": ": address of the VRF coordinator"
        }
      },
      "getRandomNumber(uint256)": {
        "params": {
          "_seed": ": seed provided by the GuitarSwap lottery"
        }
      },
      "owner()": {
        "details": "Returns the address of the current owner."
      },
      "renounceOwnership()": {
        "details": "Leaves the contract without owner. It will not be possible to call `onlyOwner` functions anymore. Can only be called by the current owner. NOTE: Renouncing ownership will leave the contract without an owner, thereby removing any functionality that is only available to the owner."
      },
      "setFee(uint256)": {
        "params": {
          "_fee": ": new fee (in LINK)"
        }
      },
      "setKeyHash(bytes32)": {
        "params": {
          "_keyHash": ": new keyHash"
        }
      },
      "setLotteryAddress(address)": {
        "params": {
          "_guitarLottery": ": address of the GuitarSwap lottery"
        }
      },
      "transferOwnership(address)": {
        "details": "Transfers ownership of the contract to a new account (`newOwner`). Can only be called by the current owner."
      },
      "withdrawTokens(address,uint256)": {
        "details": "Only callable by owner.",
        "params": {
          "_tokenAddress": ": the address of the token to withdraw",
          "_tokenAmount": ": the number of token amount to withdraw"
        }
      }
    },
    "version": 1
  },
  "userdoc": {
    "kind": "user",
    "methods": {
      "constructor": "Constructor",
      "getRandomNumber(uint256)": {
        "notice": "Request randomness from a user-provided seed"
      },
      "setFee(uint256)": {
        "notice": "Change the fee"
      },
      "setKeyHash(bytes32)": {
        "notice": "Change the keyHash"
      },
      "setLotteryAddress(address)": {
        "notice": "Set the address for the GuitarLottery"
      },
      "viewLatestLotteryId()": {
        "notice": "View latestLotteryId"
      },
      "viewRandomResult()": {
        "notice": "View random result"
      },
      "withdrawTokens(address,uint256)": {
        "notice": "It allows the admin to withdraw tokens sent to the contract"
      }
    },
    "version": 1
  }
}